:020000040800F2
:100000000000032011670008DF040008E104000875
:10001000E3040008E5040008E7040008616700083D
:10002000000000000000000000000000E9040008DB
:10003000EB04000800000000ED040008EF040008D5
:100040006167000861670008616700086167000870
:100050006167000861670008616700086167000860
:100060006167000861670008616700086167000850
:100070006167000861670008616700086167000840
:100080006167000861670008616700086167000830
:100090006167000861670008616700086167000820
:1000A0006167000861670008616700086167000810
:1000B0006167000861670008616700086167000800
:1000C00061670008616700086167000861670008F0
:1000D00061670008616700086167000861670008E0
:1000E00061670008616700086167000861670008D0
:1000F00061670008616700086167000861670008C0
:1001000061670008616700086167000861670008AF
:10011000616700086167000861670008616700089F
:10012000616700086167000861670008616700088F
:10013000616700086167000861670008616700087F
:10014000616700086167000861670008616700086F
:10015000616700086167000861670008616700085F
:1001600061670008F904000861670008616700081A
:1001700061670008000000006167000800000000DF
:10018000616700086167000861670008616700082F
:10019000616700086167000861670008616700081F
:1001A000616700086167000861670008616700080F
:1001B00061670008616700086167000861670008FF
:1001C00061670008616700086167000861670008EF
:1001D00061670008616700086167000861670008DF
:1001E00061670008616700086167000861670008CF
:0801F000616700080000000037
:1001F8000348044B834202D0034B03B118477047AE
:10020800200300202003002000000000064B0749BF
:10021800C91A891048BF0131491003D0044B0BB1EA
:1002280001481847704700BF200300202003002022
:100238000000000010B5064C237843B9FFF7D8FF3B
:10024800044B13B10448AFF300800123237010BDA1
:1002580020030020000000001C77000808B5054BAB
:100268001BB105490548AFF30080BDE80840FFF71A
:10027800CDBF00BF00000000240300201C77000849
:100288002DE9F0418AB00024059406940794089457
:100298000994364BDA6C42F00402DA64DA6C02F044
:1002A80004020192019ADA6C42F08002DA64DA6C94
:1002B80002F080020292029ADA6C42F00102DA64D9
:1002C800DA6C02F001020392039ADA6C42F002023D
:1002D800DA64DB6C03F002030493049BDFF8988074
:1002E80022463F21404605F05EF9214D01224FF498
:1002F8008051284605F057F901220321284605F0C8
:1003080052F943F6FF730593069402260796194F90
:1003180005A9384605F05CF84FF4004305930694A8
:10032800079405A9384605F053F83F23059301279C
:10033800069707960326089605A9404605F048F84B
:100348004FF48053059306970797089605A9284602
:1003580005F03EF8059606970794089605A92846DD
:1003680005F036F80AB0BDE8F08100BF0010024081
:1003780000040242000802420000024272B6FEE790
:1003880008B5002005F002FA18B905F011FA10B9FD
:1003980008BDFFF7F3FFFFF7F1FF000008B51348AA
:1003A800134B0360134B4360002383600122C26038
:1003B800036143618361C361036203F0D2FC70B9D6
:1003C80000210A4803F0EAFD58B90021074803F064
:1003D80013FE40B94FF4001003F03AFE08BDFFF7D2
:1003E800CDFFFFF7CBFFFFF7C9FF00BF3C0300209D
:1003F800005800403A16400000B599B04822002144
:1004080006A806F085FF0020019002900390049052
:10041800059005F0F7F820BB012306934FF48033CD
:100428000793022311930322129213930C2214921E
:10043800072215921693179306A803F02DFF90B97B
:100448000F2301930323029300230393049305933B
:1004580004210DEB010004F0F9FA30B919B05DF888
:1004680004FBFFF78BFFFFF789FFFFF787FF08B54E
:1004780003F0F2FAFFF7C0FFFFF702FFFFF780FF74
:10048800FFF78CFF01F0FAF8A12000F073FBBF2002
:1004980000F070FB00F05AFC20B900F051F900F0B0
:1004A80063FD0FE000F086FDF7E700F02BFC00F09D
:1004B8004DFC08B100F07EFD00F07EFCBF21A120BC
:1004C80000F0F0FB00F0A2FA00F0AAF80028ECD047
:1004D80000F02AFCEBE7FEE7FEE7FEE7FEE7FEE7B3
:1004E80070477047704708B503F0C8FA08BD0000A8
:1004F80008B5024802F0A7F808BD00BFD0050020E3
:1005080000B583B00B4B1A6E42F001021A661A6EE0
:1005180002F001020092009A9A6D42F080529A65A8
:100528009B6D03F080530193019B05F051F803B0D4
:100538005DF804FB0010024010B5AEB0044600217F
:1005480029912A912B912C912D91942204A806F09F
:10055800DFFE23682E4A934204D02E4A93422CD0C1
:100568002EB010BD4023049304A804F07DFC08BB02
:10057800294CE36C43F00203E364E36C03F00203E9
:100588000093009B4FF44073299312232A9300236E
:100598002B932C9304232D9329A9204804F018FFAA
:1005A800A36D43F40013A365A36D03F40013019333
:1005B800019BD5E7FFF7E2FEDAE78023049304A85E
:1005C80004F052FC08BB144CE36C43F00203E364F0
:1005D800E36C03F002030293029B4FF4C043299398
:1005E80012232A9300232B932C9304232D9329A9B8
:1005F8000A4804F0EDFEA36D43F48003A365A36DE0
:1006080003F480030393039BAAE7FFF7B7FEDAE737
:10061800005400400058004000100240000402420C
:10062800044B93F89C32DBB2042B01D000207047B6
:10063800012070470009002010B52A4B01221A70CA
:10064800294A12785A70294A1178D9705178197143
:1006580091785971D17899711179D97152791A7241
:10066800234B02221A70234A12785A70224B1B78A5
:1006780033B9224B1B78E3B9FFF7D2FF10B310BD93
:10068800FFF7CEFF78B11E4CD4F8C80202F0DAF9B1
:100698000A2003F005FAD4F8C80202F0D8F9164B7C
:1006A80000221A70E5E709220E49154806F002F8FB
:1006B800F5E702220E49124805F0FCFF0F4B002215
:1006C8001A70D9E70F4C012221460D4806F014F89C
:1006D800237813F0020F02D000F054FBCFE700F0AC
:1006E8005BFBCCE798030020A9030020AC030020A3
:1006F80090030020A8030020A1030020A2030020EB
:100708000009002094030020024B1878003818BF15
:1007180001207047A6030020034B1B780BB1012072
:1007280070470020704700BFA5030020034B1B78CB
:100738000BB1012070470020704700BFA4030020C0
:10074800014B1878704700BFA3030020014B1870B5
:10075800704700BFA303002008B547F20B03984277
:1007680000F0FF8036D9B0F5EE4F00F0EF80C0F012
:10077800998047F62303984200F2968047F60303D0
:10078800984269D3A0F5F043033B202B7DD8DFE8DE
:1007980013F00C0111017C007C007C007C007C00C3
:1007A8007C007C007C007C007C007C007C007C0061
:1007B8007C007C007C007C007C007C007C007C0051
:1007C8007C007C007C007C007C007C007C00F200CB
:1007D800FF00D200E72829D8A82825D3A0F1A8032C
:1007E8003F2B5DD8DFE803F0919191919191915C55
:1007F8005C5C5C5C5C5C5C5C5C5C5C5C5C5C5C5C31
:100808005C5C5C5C5C5C5C5C5C5C5C5C5C5C5C5C20
:100818005C5C5C5C5C5C5C5C5C5C5C5C5C5C5C5C10
:100828007B7B7B627B7B7B6200232FE045F220236E
:10083800984200F0C48045F2602398420AD100290A
:1008480058D0674A1378B3FA83F35B09137000F042
:10085800ADFA4FE0002319E0002317E0614AD154B4
:10086800614A1378013B1370604B01221A7041E012
:100878005C4AD25C92B95B4AD0545B4A1378013324
:1008880013705A4B01221A7034E00023052B31DC17
:100898000029EDD1534AD25C8242DFD00133F5E71B
:1008A8000023F3E70023F1E70023EFE7504B1B7821
:1008B80003B351B1E038012282404E490B7813430B
:1008C8000B704A4B01221A7014E0E0380123834070
:1008D800DB435BB247490A7813400B70F1E751B12B
:1008E800E0380122824043490B7813430B703F4B99
:1008F80001221A7008BDE03801238340DB435BB254
:100908003C490A7813400B70F1E751B1A83801222D
:10091800824039490B7813430B70384B01221A7007
:10092800E8E7A83801238340DB435BB232490A7801
:1009380013400B70F1E70029DCD000F007FA10B182
:1009480000F010FAD6E700F007FAD3E729B12C4BEC
:1009580002221A7000F02AFACCE7294B00221A70FA
:10096800F8E70029C6D0224B187880F001001870EB
:1009780000F0FEF9BEE70029BCD0224B1B78002B03
:10098800B8D0013BD8B21F4B187000F0EDFAB1E7B0
:100998000029AFD01B4B1B78022BABD00133D8B248
:1009A800184B187000F0E0FAA4E70029A2D000F074
:1009B800E5FA9FE700299DD000F0EEFA9AE729B101
:1009C800114B02221A7000F0F1F993E70E4B002246
:1009D8001A700B4B1B78002BF5D0094B1A70F2E7F5
:1009E800A6030020AC030020A7030020A1030020D9
:1009F80000000020A9030020A8030020A203002073
:100A0800A4030020A3030020A5030020F8B5274B6A
:100A180000261E605E609E6001242AE00021244BAF
:100A28001B78244A12781344234A12781A44C6EBD6
:100A3800C6004300542000FB02332B441F4A32F8FF
:100A48001300FFF789FE1E4A32F81630634022F879
:100A580016300135EDB26400A4B20D2D08D83C4221
:100A6800F7D0124B33F816302342D7D00121D6E7FE
:100A78000136052E16DC012000FA06F2114B5A61E8
:100A880003F00EF8104B1B69C3F30D03074A22F855
:100A980016300B4A32F8162083EA02079342E7D051
:100AA8000025DAE7FFF7C8FDF8BD00BFC003002046
:100AB800A6030020A5030020A4030020387700081F
:100AC800B4030020000002420008024200B583B0CF
:100AD80013460B4A117053704FF4FA6300930223C4
:100AE8000146084803F09CF930B10146064805F074
:100AF80059FE03B05DF804FB044806F02FFAF8E746
:100B0800500500203C030020287B00083C7B00089F
:100B180070B582B006460D46002417E0E21801338E
:100B280015F802C00F4A02F803C00F2BF6DD4FF488
:100B3800FA63009311230B4A31460B4803F070F90E
:100B4800014648B1094805F02DFE1034BF2C07DCDA
:100B5800044B1C700023E8E7054806F0FFF9F4E7AA
:100B680002B070BD500500203C0300204C7B0008FB
:100B7800607B000838B50546C522FE21FFF7A6FFB1
:100B88000022FD212846FFF7A1FF002405E0FF22EF
:100B9800E1B22846FFF79AFF0134172CF7DDC5228A
:100BA800FE212846FFF792FF0122FD212846FFF784
:100BB8008DFF002405E00022E1B22846FFF786FFFA
:100BC8000134BF2CF7DDC522FE212846FFF77EFF42
:100BD8000322FD212846FFF779FFFF22012128463D
:100BE800FFF774FF012200212846FFF76FFF6420FA
:100BF80002F056FF38BD00002DE9F04182B00746EB
:100C0800884614461D469DF8206000F0A3F95F2F22
:100C18003CD884461F4B53F827000190B8F1000FC9
:100C280005D0E443E4B2ED43EDB2F643F6B214FB6B
:100C38000CF4A4B2184BA3FB0424C4F347141CFB04
:100C480005F5ADB2A3FB0525C5F347151CFB06FC4E
:100C58001FFA8CFCA3FB0C3CCCF3471C9DF804301A
:100C68009DF805000D4A03EB430102EB81110C547A
:100C78009DF806000D549DF8071003EB430302EBA3
:100C8800831202F801C0064B01221A7002B0BDE8B7
:100C9800F08100BF040000201F85EB51D003002025
:100CA800CC030020154B1B781BB9144B00221A707B
:100CB800704770B505460C46C522FE21FFF706FFB2
:100CC8000122FD212846FFF701FF0D4E3146284637
:100CD800FFF71EFFC522FE212046FFF7F7FE01227F
:100CE800FD212046FFF7F2FE06F1C0012046FFF77E
:100CF8000FFF024B00221A7070BD00BFCC0300200A
:100D0800D003002008B54FF48051064804F044FC95
:100D1800012800D108BD01224FF48051014804F098
:100D280042FCF7E70004024208B54FF48051064838
:100D380004F032FC00B908BD00224FF4805102488B
:100D480004F031FCF7E700BF00040242014B1878B9
:100D5800704700BF84010020014B01221A707047C0
:100D680084010020014B00221A7070478401002082
:100D780008B502460221024804F015FC08BD00BF70
:100D88000004024208B500220121024804F00BFCCD
:100D980008BD00BF0004024208B5012211460248FE
:100DA80004F001FC08BD00BF00040242014B01220F
:100DB8001A707047B805002070B582B0FFF7C0FC04
:100DC8005E4B1B780BB902B070BD0546FFF79CFC63
:100DD80010B1032600244EE00026FBE7FFF79CFC39
:100DE800002857D0A5B1022D1AD0731903EB43037D
:100DF80004EB4313524A52F82320D3B20093C2F3B0
:100E08000723C2F3074201212046FFF7F5FE31E030
:100E1800002100910B46FF222046FFF7EDFE29E056
:100E2800FF230093002211462046FFF7E5FE21E04C
:100E3800002100910B46FF222046FFF7DDFE19E056
:100E4800FF230093002211462046FFF7D5FE11E04C
:100E5800AB1903EB430304EB4313394A52F823203D
:100E6800D3B20093C2F30723C2F3074200212046FE
:100E7800FFF7C2FE0134562C35DCFFF757FC48B1AA
:100E8800FFF742FC00EB40002E4B03EB40131B5DC9
:100E9800002BA3D1FFF740FC0028D9D0FFF734FC82
:100EA80000EB4000284B03EB40131B5D002BCFD019
:100EB800FFF73CFC0028CBD1002DB9D0022DBFD0C4
:100EC800731903EB430304EB43131D4A52F8232021
:100ED800D3B20093C2F30723C2F30742012120468D
:100EE800FFF78AFEC6E7002411E005EBC50323449B
:100EF800164A52F82320D3B20093C2F30723C2F351
:100F08000742002104F15500FFF776FE0134082C52
:100F18003FF759AFFFF71AFF0028E6D00C4B53F8FC
:100F28002420D3B20093C2F30723C2F3074200215F
:100F380004F15500FFF760FEE8E700BFB8050020A0
:100F4800687D0008E87B0008A87C00087C7B000816
:100F580094050020024B1B78024AD05C704700BF02
:100F6800850100206886000808B5032800D90020FC
:100F7800FFF7ECFBFFF71AFF08BD000008B5054BAB
:100F88001B7803B908BD013B024A1370FFF70EFF37
:100F9800F8E700BF8501002008B5054B1B78092B31
:100FA80000D908BD0133024A1370FFF7FFFEF8E7C6
:100FB800850100202DE9F04F85B0FFF7C1FB804681
:100FC800B54B1B6853B102F065FDB34B1B68C01AE3
:100FD800322800F20B8105B0BDE8F08F02F05AFD0F
:100FE800AD4B1860EFE708EBC8021A44AB4951F85B
:100FF8002210AB4A42F823100133082BF3DDA94B2A
:10100800187808EBC80300900344A44A52F8235008
:10101800290CC5F30743A44A13802F0AC5F30722F6
:10102800A24802805FFA85FCA148A0F800C0A14848
:1010380050F828404FEA144BC4F307400646019085
:101048009D4806804FEA142EC4F3072006460290F6
:101058009A4806805FFA84FA9948A0F800A0009898
:10106800002840F0C58008EBC8088C4800EB8800D1
:10107800C069C0F30749DFF86882A8F80090C0F398
:101088000729DFF86082A8F80090C0B2DFF858821C
:10109800A8F800005FFA8BFB5FFA81F8ABEB080851
:1010A800884880FB08914FEAE878C8EB2118864EFB
:1010B800A6F800805FFA8EFEFFB2AEEB070780FB52
:1010C8000791FF17C7EB211780490F80E1B2EDB2F6
:1010D80003914D1B80FB0591ED17C5EB21157C494C
:1010E8000D807C49097818FB01F843449BB2DFF86E
:1010F800FC91A9F8003017FB01F73A4492B2DFF8E7
:10110800F081A8F8002015FB01F5AC441FFA8CFC0F
:10111800714FA7F800C01B0403F47F036F4DAB6049
:10112800120292B21343AB6053FA8CF3AB606C605B
:101138006B4A1288A2EB0B0280FB02BCD217C2EBEF
:101148002C123280DFF89CC1BCF800C0ACEB0E0C4E
:1011580080FB0CBE4FEAEC7CCCEB2E1C5B4EA6F859
:1011680000C0DFF884E1BEF800E0039EAEEB060E97
:1011780080FB0EB04FEAEE7ECEEB201E5448A0F85E
:1011880000E012FB01F20198104482B2A9F8002095
:101198001CFB01FC0298604480B2A8F800001EFB0A
:1011A80001FE0AEB0E0C1FFA8CFCA7F800C0120413
:1011B80002F47F022A60000280B202432A6052FAD7
:1011C8008CF22A603648009D40F82530002D45D124
:1011D8000462C261322951D001313E4B197002F0CC
:1011E80059FC2D4B1860FFF7E1FDF4E6002304E7F6
:1011F800009801281AD00098023808EBC808404423
:10120800DFF8988058F82000C0F30749DFF8D0804D
:10121800A8F80090C0F30729DFF8C880A8F8009064
:10122800C0B2DFF8C480A8F8000033E708EBC808AC
:101238001A4800EB8800006AC0F30749DFF8A0806D
:10124800A8F80090C0F30729DFF89880A8F8009064
:10125800C0B2DFF89480A8F800001BE7009B012BC0
:1012680008D0009D6B1E0E4840F82340AB1E40F886
:101278002320AFE70A4B1C601A62ABE7154B00222C
:101288001A70009B082B04D0009E0136054B1E7077
:10129800A5E7044B1A70A2E7840500207C7B0008B0
:1012A80094050020B9050020820500208005002053
:1012B8007E050020707B00087C0500207A05002050
:1012C800780500201F85EB51700500206E05002071
:1012D8006C0500206A0500206405002088050020B0
:1012E800760500207405002072050020680500209E
:1012F80066050020032805D8DFE800F0050402058C
:10130800012070470320704708B5D0F8F00204F0B8
:10131800A4FB08BD08B5D0F8F00204F0B5FB08BD81
:1013280008B501EB810300EBC303DA6BD0F8F002D8
:1013380004F03AFC08BD08B501EB810300EBC303D8
:10134800D3F87C21D0F8F00204F0CBFB08BD08B537
:10135800D0F8F00204F0B1FB08BD08B5D0F8F002EF
:1013680004F0A9FB08BD08B5FFF746F808BD000062
:1013780010B50446836923B9D4F8F00204F04FFB92
:1013880010BD044A136923F006031361FFF7EBFF4E
:10139800F2E700BF00ED00E010B50446D0F8F00217
:1013A80004F02EFBA36923B1024A136943F0060334
:1013B800136110BD00ED00E010B504468368022BF0
:1013C80009D10121D4F8F00204F017FBD4F8F00297
:1013D80004F0E1FA10BDFEF7D1FFF2E708B500F519
:1013E8002C71D0F8F00204F0AAFA08BD08B5D0F8BC
:1013F800F00204F021FB08BD30B5ADB00446002171
:101408002791289129912A912B91942202A805F0DD
:101418007FFF2268244B9A4201D02DB030BD4FF493
:10142800005302934FF080631F9303230393042315
:1014380004930C2305930723069302230793089329
:101448004FF48013099302A803F00EFD48BB174C14
:10145800E36C43F00103E364E36C03F001030093DE
:10146800009B4FF4C0532793022328930025299506
:101478002A950A232B9327A90D4803F0A9FFE36DAA
:1014880043F40013E365E36D03F400130193019B38
:101498002A462946492004F051F9492004F05EF90A
:1014A800BBE7FEF76BFFD2E700D400400010024014
:1014B8000000024238B50546334CC4F8F002C0F8C3
:1014C800C84204F07DF8314B23600823636002238F
:1014D800A360236100236361A361E3612362204663
:1014E80000F0BEFE00284BD1274C294A0121204696
:1014F80000F070FF274A0221204600F06BFF264AC1
:101508000321204600F066FF244A0421204600F00B
:1015180061FF234A0521204600F05CFF214A06218D
:10152800204600F057FF204A0721204600F052FFCE
:101538001E49204600F0C2FF1D49204600F0E5FF85
:101548001C49204601F008F81B49204601F02BF8F9
:10155800182300221146D5F8C80201F07DFA582355
:1015680000228021D5F8C80201F076FA4FF4807382
:1015780000228121D5F8C80201F06EFA002038BD9A
:10158800FEF7FCFEB0E700BFD005002000D4004005
:10159800F5130008E5130008C1130008A11300089B
:1015A8007913000863130008571300083F13000855
:1015B800291300081D1300081113000808B5D0F8F6
:1015C800C80201F017F8FFF795FE08BD08B5944664
:1015D8001A466346D0F8C80201F015F9FFF78AFEEB
:1015E80008BD08B5D0F8C80201F04BF9FFF782FE34
:1015F80008BD08B5D0F8C80201F0B4F9FFF77AFEC3
:1016080008BD08B5D0F8C80201F0E1F9FFF772FE8D
:1016180008BDD0F8C83211F0800F08D101F07F0161
:1016280001EB810103EBC10393F86A01704701F0F4
:101638007F01013101EB810103EBC1039878704709
:1016480008B5D0F8C80200F0EAFFFFF753FE08BD5E
:1016580008B5D0F8C80201F063F9FFF74BFE08BDE2
:1016680008B5D0F8C80201F03EF9FFF743FE08BDFF
:1016780000487047BC0500207047000008B50022EC
:101688000B490C4804F014F948B90B49094804F00F
:1016980026F938B9074804F03CF930B908BDFEF717
:1016A8006DFEF2E7FEF76AFEF4E7FEF767FEF5E780
:1016B800BC010020000900208802002012230B80B2
:1016C80000487047A801002004230B800048704799
:1016D800A4010020002393421ED200B510E00CF1B3
:1016E800370C01F813C000014FEA430C0CF1010C50
:1016F8004FF0000E01F80CE00133DBB2934209D23F
:101708004FEA107CB0F1204FE9D20CF1300C01F80F
:1017180013C0E8E75DF804FB7047000038B50B4BD1
:10172800D3F89005D3F89445D3F89835C01800D16C
:1017380038BD074D08222946FFF7CCFF042205F1E2
:1017480010012046FFF7C6FFF2E700BF0000FA0BC2
:101758008A01002008B51A230B80FFF7DFFF014834
:1017680008BD00BF8801002008B50A4628B9054908
:10177800054804F01EFE034808BD0249024804F06B
:1017880018FEF8E7DC0B00207486000810B50A463E
:10179800034C2146034804F00CFE204610BD00BF50
:1017A800DC0B00208C86000808B50A4628B90549D4
:1017B800054804F0FEFD034808BD0249024804F04C
:1017C800F8FDF8E7DC0B0020A086000808B50A46FB
:1017D80028B90549054804F0ECFD034808BD02494D
:1017E800024804F0E6FDF8E7DC0B0020AC860008B0
:1017F8007047704770477047704770477047704729
:1018080070477047704738B512F4804F43D004686A
:10181800B4F8503091F800C04FEACC0E1EFA83F3AA
:101828002344B3F80244C4F309048B69A34228D3C0
:101838001B1B8B618B697BB9056835F82C309BB213
:1018480023F4804323F0700383F4005343F40043EC
:1018580043F0800325F82C3012F0400F0ED00268B8
:101868000D7832F825309BB223F4E04323F070035F
:1018780043F4004343F0C00322F8253024B920463E
:1018880038BD00238B61D5E723460A89496900687A
:1018980002F0A1F8F3E70468B4F8503091F800C0FA
:1018A8004FEACC0E1EFA83F32344B3F80644C4F37C
:1018B80009048B69A3422FD31B1B8B618B697BB9EE
:1018C800056835F82C309BB223F4804323F070036D
:1018D80083F4005343F4004343F0800325F82C308D
:1018E80012F0400F0FD1026891F800C032F82C3086
:1018F8009BB223F4E04323F0700343F4004343F026
:10190800C00322F82C30002CB9D023464A894969F3
:10191800006802F060F8B2E700238B61CEE770B58B
:1019280005460C46164612F0400F00F00B8102687F
:10193800B2F850300978C80010FA83F31344B3F8AA
:101948000224C2F30902A36993424ED99B1AA361E8
:10195800A369002B65D16378002B49D12A68B2F8B6
:10196800503012FA83F30344B3F80224C2F3090295
:10197800A3F80224B3F802246FEA42426FEA524203
:1019880092B2A3F802242A686378002B3CD1B2F8FB
:10199800503012FA83F3227803EBC203B3F806241B
:1019A800C2F30902A3F80624B3F806246FEA4242F8
:1019B8006FEA524292B2A3F80624D5F8143321787C
:1019C8002846984716F4804F40D02A68217832F884
:1019D80021309BB223F4E04323F0700343F44043E7
:1019E80043F0800322F8213030E00023A361AFE701
:1019F800012BC8D12A68B2F8503012FA83F3034495
:101A08000022A3F80224BEE7012BD6D1B2F8503049
:101A180012FA83F3227803EBC2030022A3F8062408
:101A2800CBE716F4804F0DD0286830F821309BB2F0
:101A380023F4E04323F0700343F4404343F080036E
:101A480020F8213094F82430012B12D02A6821780C
:101A580032F821309BB223F4E04323F0400383F0B3
:101A6800300343F4004343F0800322F82130002080
:101A780070BD636913446361E3691344E361216AD8
:101A88002369994224D3C91A21626278002A44D171
:101A98002968B1F8502011FA82F2217802EBC102CC
:101AA800B2F80214C1F30901A2F802143E2B1BD9A3
:101AB800580913F01F0F00D10138B2F8021489B287
:101AC800800280B2014341F40041A2F8021426E0EA
:101AD80021B9002384F824301346D6E7002384F87C
:101AE800243023620B46D0E74BB9B2F802146FEAF0
:101AF80041416FEA514189B2A2F802140FE0590836
:101B080013F0010F00D00131B2F8020480B289024B
:101B180089B20143A2F8021401E0012A06D09BB25F
:101B280022896169286801F05DFB8FE72968B1F8AF
:101B3800502011FA82F2217802EBC10299B2A2F880
:101B48000214ECE70268B2F850300978C80010FABD
:101B580083F31344B3F80624C2F30902A36993423A
:101B68004FD39B1AA361A369002B66D16378002B1E
:101B78004AD12A68B2F8503012FA83F30344B3F812
:101B88000224C2F30902A3F80224B3F802246FEA7C
:101B980042426FEA524292B2A3F802242A6863785A
:101BA800002B3DD1B2F8503012FA83F3227803EBC0
:101BB800C203B3F80624C2F30902A3F80624B3F853
:101BC80006246FEA42426FEA524292B2A3F8062410
:101BD800D5F8143321782846984716F4804F7FF4B7
:101BE80035AF2A68217832F821309BB223F4E043DC
:101BF80023F0700343F4404343F0800322F821307C
:101C080024E70023A361AEE7012BC7D12A68B2F805
:101C1800503012FA83F303440022A3F80224BDE7EC
:101C2800012BD5D1B2F8503012FA83F3227803EBA6
:101C3800C2030022A3F80624CAE716F4804F0DD188
:101C4800286830F821309BB223F4E04323F0700376
:101C580043F4404343F0800320F8213094F82430C3
:101C6800012B7FF4F3AE636913446361E3691344A2
:101C7800E361216A2369994224D3C91A2162296838
:101C88006278002A43D1B1F8502011FA82F2217803
:101C980002EBC102B2F80614C1F30901A2F8061456
:101CA8003E2B1BD9580913F01F0F00D10138B2F889
:101CB800061489B2800280B2014341F40041A2F8BF
:101CC800061426E021B9002384F824301346D6E709
:101CD8000023236284F824300B46D0E74BB9B2F8CE
:101CE80006146FEA41416FEA514189B2A2F806141D
:101CF8000FE0590813F0010F00D00131B2F80604C3
:101D080080B2890289B20143A2F8061401E0012ACF
:101D180006D09BB262896169286801F063FA95E68A
:101D2800B1F8502011FA82F2217802EBC10299B27F
:101D3800A2F80614EDE72DE9F04105462868B0F849
:101D4800443013F4004F00F08782B0F84440A3B247
:101D580014F00F0440F0DD8013F0100F33D1038826
:101D68009BB223F4E14323F070036FEA43436FEA25
:101D780053439BB203802968B1F8503095F8282066
:101D8800D20012FA83F30B44B3F80234C3F3090305
:101D98006B64EA6B1A44EA63D5F8143300212846C9
:101DA800984795F82430002BC8D02B6C002BC5D150
:101DB80095F824302A6843F08003A2F84C300023B9
:101DC80085F82430BAE703889AB213F4006F65D116
:101DD80012F4004FB2D0038823F070031B051B0DCB
:101DE80043F0800303802868B0F8503095F86821E4
:101DF800D20012FA83F30344B3F80634C3F3090399
:101E0800C5F8843193B1D5F87C1179B1B5F86E2154
:101E180001F0E1FDD5F87C31D5F884211344C5F8EB
:101E28007C31D5F810330021284698472A68138852
:101E380099B213F4006F81D101F44051B1F5405FBC
:101E48003FF47CAFB2F8503012FA83F3B3F80624AB
:101E5800C2F30902A3F80624D5F878213E2A3FD90F
:101E6800510912F01F0F00D10139B3F8062492B2BC
:101E7800890289B20A4342F40042A3F806242A6878
:101E880013889BB223F4804323F0700383F44053F8
:101E980043F4004343F0800313804FE7B0F8503019
:101EA80095F86821D20012FA83F30344B3F8063494
:101EB800C3F30903C5F88431B5F86E2105F52C7113
:101EC80001F089FD2A68138823F070031B051B0D98
:101ED80043F080031380D5F8F832284698472DE759
:101EE8004AB9B3F806246FEA42426FEA524292B204
:101EF800A3F80624C3E7510812F0010F00D00131FE
:101F0800B3F8062490B28A0292B20243A3F80624D8
:101F1800B5E730F824309EB213F4004F4BD116F0D9
:101F2800800F3FF40BAF621C02EB820105EBC1018D
:101F3800286830F824309BB223F4E14323F070037F
:101F48006FEA43436FEA53439BB220F82430CB78BF
:101F5800012B00F0EB8016F4807F40F07881286830
:101F6800B0F85030621C02EB820215F83260F200C1
:101F780012FA83F30344B3F80234C3F3090304EBFE
:101F8800840205EBC202126C9A4240F2488104EBCB
:101F9800840705EBC707D21A3A6404EB840205EB01
:101FA800C202126C002A40F04181D5F81433314640
:101FB80028469847C2E630F8243023F070031B0502
:101FC8001B0D43F0800320F8243004EB8401C90082
:101FD80001F5B47105EB010804EB840305EBC303B9
:101FE80093F87431002B41D12868B0F8503004EBD5
:101FF800840205EBC20292F86821D20012FA83F338
:102008000344B3F80674C7F309071FBB04EB840342
:1020180005EBC303D3F884213A44C3F88421D3F8E9
:102028007C213A44C3F87C21D3F880313BB104EBDE
:10203800840305EBC303D3F878319F4271D2D5F8F6
:10204800102304EB840305EBC30393F868112846B7
:10205800904764E704EB840105EBC1013B46B1F806
:102068006E21D1F87C1101F0B6FCCFE704EB8403B4
:1020780005EBC30393F86B31022B33D0296804EBCB
:10208800840205EBC20292F8680131F820309BB255
:1020980023F4E04323F0700343F4004343F0C00308
:1020A80021F82030286892F8683130F8232012F49B
:1020B800804F1ED0B0F85020DB0013FA82F303449F
:1020C800B3F80274C7F30907002F9FD004EB84010B
:1020D80005EBC1013B46B1F87021D1F87C1101F044
:1020E8007AFC93E7324641462846FFF78CFB0746C1
:1020F8008CE7B0F85020DB0013FA82F30344B3F8FE
:102108000674C7F30907002F80D004EB840105EBA0
:10211800C1013B46B1F87221D1F87C1101F05BFC9A
:1021280074E74146286801F06FF8F8E604EB840389
:1021380005EBC30300221A6493F83430FBB116F0A0
:10214800400F38D04B7823BB2A68B2F8503012FAC7
:1021580083F3621C02EB820215F8322003EBC20300
:10216800B3F80224C2F30902A3F80224B3F8022444
:102178006FEA42426FEA524292B2A3F80224D5F8BB
:102188001433013404EB840415F8341028469847B6
:10219800D4E5012BF3D12A68B2F8503012FA83F350
:1021A800621C02EB820215F8322003EBC203002204
:1021B800A3F80224E3E72A68631C03EB830305EB17
:1021C800C3035B78D3B9B2F8503012FA83F3621CB8
:1021D80002EB820215F8322003EBC203B3F806249F
:1021E800C2F30902A3F80624B3F806246FEA4242B0
:1021F8006FEA524292B2A3F80624C0E7012BBED17F
:10220800B2F8503012FA83F3621C02EB820215F81E
:10221800322003EBC2030022A3F80624AFE704EB45
:10222800840205EBC20200271764B6E604EB8402B9
:1022380005EBC202D66B1E44D663526C04EB8404D1
:1022480005EBC4041344636400F0DEFF76E5324610
:102258002846FFF764FB71E50020BDE8F081000027
:10226800002800F0998030B587B0044690F8A9326C
:102278007BBB80F8A832494BC0F8F432484BC0F811
:10228800F832484BC0F8FC32474BC0F80033474B94
:10229800C0F80433464BC0F80833464BC0F80C333B
:1022A800454BC0F81033454BC0F81433444BC0F8C5
:1022B8001833444BC0F81C33434BC0F82433434B0A
:1022C800C0F82033D0F828335BB1D4F8283320463F
:1022D8009847032384F8A932206800F0FAFB00230A
:1022E8001AE03B4BC0F82833EFE75A1C02EB820197
:1022F80004EBC1010120487002EB820104F831307F
:1023080004EBC1000021C17003EB830004EBC000A3
:102318008163C1630164D3B260688342E5D300235B
:1023280016E003EB830204EBC202002182F8691174
:1023380082F8683182F86B11C2F87811C2F87C1102
:1023480003EB830204EBC202C2F880110133DBB253
:102358009842E6D8A4465CF8105BEE46BCE80F004D
:10236800AEE80F00DCF80030CEF80030231D0ECBAD
:10237800284600F0B8FB002384F82430012384F8B1
:10238800A932E369012B02D0002007B030BD2046F6
:1023980000F07EFB0020F8E701207047FF170008D7
:1023A800FD170008011800080318000805180008A0
:1023B8000B1800080D180008F9170008FB1700088B
:1023C8000718000809180008C52A0008C72A0008C5
:1023D800011400080346FAB110B4144690F8A82274
:1023E800012A69D0012280F8A82290F8A902C0B277
:1023F800904219D093F8A92202F0FF00002A4ED18A
:10240800082946D0092947D0D3F8AC2242F0100257
:10241800C3F8AC22012049E0D0F8AC2242F0100207
:10242800C0F8AC2201207047013908292AD8DFE812
:1024380001F005090D1115191D212500C3F8F442F5
:10244800002033E0C3F8F84200202FE0C3F8FC4234
:1024580000202BE0C3F80043002027E0C3F8044322
:10246800002023E0C3F8084300201FE0C3F80C4312
:1024780000201BE0C3F82843002017E0C3F82C43D2
:10248800002013E0D3F8AC2242F01002C3F8AC22CB
:102498000CE0C3F8284309E0C3F82C4306E0D3F85E
:1024A800AC2242F01002C3F8AC220120002283F8CB
:1024B800A8225DF8044B70470220FAE70346B1B141
:1024C80093F8A822012A1ED0012283F8A82293F8A3
:1024D800A922D2B2012A12D0D3F8AC2242F01002BB
:1024E800C3F8AC220120002283F8A8227047D3F851
:1024F800AC2242F01002C3F8AC2201207047C3F8A6
:1025080010130020EFE7022070470346B1B193F89B
:10251800A822012A1ED0012283F8A82293F8A92212
:10252800D2B2012A12D0D3F8AC2242F01002C3F87A
:10253800AC220120002283F8A8227047D3F8AC22ED
:1025480042F01002C3F8AC2201207047C3F81413FC
:102558000020EFE7022070470346B1B193F8A822A4
:10256800012A1ED0012283F8A82293F8A922D2B208
:10257800012A12D0D3F8AC2242F01002C3F8AC22E0
:102588000120002283F8A8227047D3F8AC2242F039
:102598001002C3F8AC2201207047C3F818130020BA
:1025A800EFE7022070470346B1B193F8A822012A49
:1025B8001ED0012283F8A82293F8A922D2B2012AB8
:1025C80012D0D3F8AC2242F01002C3F8AC2201209A
:1025D800002283F8A8227047D3F8AC2242F01002F8
:1025E800C3F8AC2201207047C3F81C130020EFE7A2
:1025F8000220704790F8A832012B0ED010B504467F
:10260800012380F8A832006800F05AFA206800F028
:10261800C7FD002084F8A80210BD0220704790F87A
:10262800A832012B0DD010B50446012380F8A8323A
:1026380080F82410006800F0ADFD002084F8A8029E
:1026480010BD0220704710B50446006800F0B3FDC5
:1026580010F4004F23D110F4806F24D110F4804F70
:1026680033D110F4005F3AD110F4805F41D110F4F7
:10267800006F6AD110F0800F40F0858010F4007F61
:1026880040F0B38010F4807F1ED02268B2F8443046
:102698009BB223F480739BB2A2F8443014E0204626
:1026A800FFF749FB10E02268B2F844309BB223F4EC
:1026B80080639BB2A2F84430D4F8FC322046984795
:1026C80000212046FFF7ABFF10BD2268B2F8443066
:1026D8009BB223F480439BB2A2F84430F4E722680B
:1026E800B2F844309BB223F400539BB2A2F84430B2
:1026F800EAE72268B2F840309BB223F004039BB2A9
:10270800A2F840302268B2F840309BB223F00803A8
:102718009BB2A2F8403094F8E032012B0DD0D4F8E7
:102728000433204698472268B2F844309BB223F419
:1027380080539BB2A2F84430C6E7002184F8E01227
:10274800D4F8243320469847E9E72268B2F84030A5
:102758009BB243F00803A2F840302268B2F8443034
:102768009BB223F400639BB2A2F844302268B2F80B
:1027780040309BB243F00403A2F84030D4F8003351
:1027880020469847A0E72268B2F844309BB223F06D
:1027980080039BB2A2F8443094F8E03203BB22686D
:1027A800B2F840309BB243F00403A2F840302268EC
:1027B800B2F840309BB243F00803A2F84030012140
:1027C80084F8E0122368B3F85430C3F38D0303F0A0
:1027D8003C03C4F8E432D4F824332046984773E71E
:1027E800D4F80033204698476EE72268B2F84430A0
:1027F8009BB223F400739BB2A2F84430D4F8F432AD
:102808002046984760E710B50446084611F0800F47
:1028180025D101F0070C0CEB8C01C90001F5B47E41
:1028280004EB0E010CEB8C0C04EBCC0C4FF0000EFF
:102838008CF869E100F0070008700A61CB70022B80
:102848001AD094F8A832012B19D0012384F8A832A1
:10285800206800F059F9002084F8A80210BD01F0A2
:10286800070C0CF1010C0CEB8C0104EBC1014FF0CF
:10287800010E81F801E0DDE700230B71E1E702209A
:10288800ECE710B504460B4611F0800F1FD101F09C
:10289800070202EB8201C90001F5B471014402EBA1
:1028A800820200EBC202002082F8690103F00703EC
:1028B8000B7094F8A832012B13D0012384F8A832A6
:1028C800206800F006FB002084F8A80210BD01F083
:1028D8000702013202EB820100EBC10101204870BE
:1028E800E4E70220F2E710B501F0070C0CEB8C01CD
:1028F800C90001F5B4710CEB8C0E00EBCE0ECEF8CE
:102908007C21CEF880310024CEF884418EF86941CC
:102918008EF868C10144006800F076FC204610BDBE
:1029280038B501F0070404F1010C0CEB8C0104EB41
:10293800840E00EBCE0ECEF83C20CEF840300122BB
:102948008EF84C20CEF848300025CEF8445000EBE5
:10295800C1035A7000F831401946006800F054FC71
:10296800284638BD0B4601F0070241688A422AD83A
:1029780010B5044613F0800F1DD103EB8301C90085
:1029880001F5B471014403EB830300EBC30300209A
:1029980083F8690101238B700A7094F8A832012B1F
:1029A80013D0012384F8A832206800F07DFB0020B2
:1029B80084F8A80210BD531C03EB830100EBC1018E
:1029C80001204870E6E7012070470220F2E70B4635
:1029D80001F00F014268914230D810B5044613F057
:1029E800800F21D103F0070202EB8201C90001F533
:1029F800B471014402EB820200EBC202002082F8AB
:102A0800690100228A7003F007030B7094F8A8325A
:102A1800012B15D0012384F8A832206800F069FB47
:102A2800002084F8A80210BD03F00702013202EB6F
:102A3800820100EBC10101204870E2E701207047E4
:102A48000220F0E708B5006800F0B9FB08BD08B53A
:102A5800006800F0BDFB08BD11F0800F0BD001F03D
:102A68000701013101EB810100EBC10052B902738A
:102A7800C3800020704701EB8101C90001F5B471E2
:102A88000844F3E70122027303811B0C4381F0E73A
:102A9800034602680121C0F8E812002083F8E0022A
:102AA800B2F854309BB20B43A2F85430B2F8543009
:102AB8009BB243F00203A2F8543070477047704746
:102AC80003460020A3F844004BF68072A3F8402088
:102AD8007047B0F8403023F47E535B045B0CA0F8D9
:102AE80040300020704784B0844601A880E80E007A
:102AF8000123ACF840300020ACF84000ACF84400AA
:102B0800ACF8500004B0704710B5034691F800C007
:102B180030F82C2092B222F4EC4222F0700292B2E9
:102B2800C878032861D8DFE800F0555C0258002017
:102B380048F2800E42EA0E0223F82C2091F800C0D9
:102B480033F82C2092B222F4E04222F070024CEAD0
:102B5800020242EA0E0223F82C200A7B002A40F0E7
:102B6800DC804A78002A51D0B3F8502013FA82F258
:102B78000C7802EBC402B1F806C04FEA5C0C4FEACD
:102B88004C0CA2F800C40C7833F8242012F0400F43
:102B98000CD033F8242092B222F4E04222F07002E2
:102BA80042F4004242F0C00223F82420CA78012AE5
:102BB8001DD0097833F8212092B222F4E04222F0A5
:102BC800400282F0200242F4004242F0800223F8E0
:102BD800212017E142F40072AAE742F4C062002003
:102BE800A6E742F480620020A2E70120A0E7097866
:102BF80033F8212092B222F4E04222F0400242F45B
:102C0800004242F0800223F82120FBE0B3F8502074
:102C180013FA82F20C7802EBC402B1F806C04FEA4C
:102C28005C0C4FEA4C0CA2F804C4B3F8502013FA19
:102C380082F20C7802EBC402B2F806C4CCF3090C99
:102C4800A2F806C40C693E2C39D94FEA541E14F078
:102C58001F0F01D10EF1FF3EB2F806C41FFA8CFC1B
:102C68004FEA8E2E1FFA8EFE4CEA0E0C4CF4004CE6
:102C7800A2F806C40C7833F8242012F4804F0CD044
:102C880033F8242092B222F4E04222F0700242F497
:102C9800404242F0800223F82420097869BB33F8C7
:102CA800212092B222F4804222F0700282F4405233
:102CB80042F4004242F0800223F82120A2E04CB9FD
:102CC800B2F806446FEA44446FEA5444A4B2A2F846
:102CD8000644CFE74FEA540C14F0010F01D00CF171
:102CE800010CB2F80644A4B24FEA8C2C1FFA8CFCF3
:102CF80044EA0C04A2F80644BCE733F8212092B257
:102D080022F4804222F0700282F4005242F400421F
:102D180042F0800223F8212074E0CA78022A72D097
:102D28000C7833F8242092B222F4E24222F07002A6
:102D380042F4004242F0800223F82420B3F85020E5
:102D480013FA82F291F800C002EBCC02B1F808C085
:102D58004FEA5C0C4FEA4C0CA2F800C4B3F85020C0
:102D680013FA82F291F800C002EBCC02B1F80AC063
:102D78004FEA5C0C4FEA4C0CA2F804C44A78002ACB
:102D880050D10C7833F8242012F4804F0CD033F84B
:102D9800242092B222F4E04222F0700242F440422F
:102DA80042F0800223F824200C7833F8242012F013
:102DB800400F0CD033F8242092B222F4E04222F0E3
:102DC800700242F4004242F0C00223F8242091F835
:102DD80000C033F82C2092B222F4804222F0700214
:102DE80082F4405248F28004224323F82C200978C8
:102DF80033F8212092B222F4E04222F0400222432A
:102E080023F8212010BD0C7833F8242092B222F444
:102E1800E04222F0700242F4014242F0800223F8BC
:102E280024208BE70C7833F8242012F4804F0CD040
:102E380033F8242092B222F4E04222F0700242F4E5
:102E4800404242F0800223F824200C7833F82420F2
:102E580012F0400F0CD033F8242092B222F4E04252
:102E680022F0700242F4004242F0C00223F824200B
:102E7800CA78012A1ED00C7833F8242092B222F4A2
:102E8800E04222F0400282F0200242F4004242F086
:102E9800800223F82420097833F8212092B222F402
:102EA800804222F0700242F4004242F0800223F88D
:102EB8002120A7E70C7833F8242092B222F4E042CC
:102EC80022F0400242F4004242F0800223F824201B
:102ED800E1E70B7B002B46D14B7813B30A7830F827
:102EE800223013F0400F0CD030F822309BB223F47C
:102EF800E04323F0700343F4004343F0C00320F899
:102F080022300A7830F822309BB223F4E04323F0D1
:102F1800400343F4004343F0800320F822300020AC
:102F280070470A7830F8223013F4804F0CD030F80C
:102F380022309BB223F4E04323F0700343F4404370
:102F480043F0800320F822300A7830F822309BB210
:102F580023F4804323F0700343F4004343F08003D9
:102F680020F82230DBE74B78002B4ED10A7830F876
:102F7800223013F4804F0CD030F822309BB223F467
:102F8800E04323F0700343F4404343F0800320F808
:102F980022300A7830F8223013F0400F0CD030F885
:102FA80022309BB223F4E04323F0700343F4004340
:102FB80043F0C00320F822300A7830F822309BB260
:102FC80023F4E04323F0700343F4004343F0C003C9
:102FD80020F822300A7830F822309BB223F480435C
:102FE80023F0700348F2800C43EA0C0320F82230E7
:102FF8000A7830F822309BB223F4E04323F04003F0
:1030080043EA0C0320F8223089E70A7830F82230A6
:1030180013F4804F0CD030F822309BB223F4E043F5
:1030280023F0700343F4404343F0800320F8223038
:103038000A7830F8223013F0400F0CD030F82230E4
:103048009BB223F4E04323F0700343F4004343F0BE
:10305800C00320F822300A7830F822309BB223F4DB
:10306800E04323F0700343F4404343F0800320F827
:1030780022300A7830F822309BB223F4E04323F060
:10308800400348F2800C43EA0C0320F822300A7807
:1030980030F822309BB223F4804323F0700343EAD4
:1030A8000C0320F822303AE74B788BB10A7830F8D5
:1030B80022309BB223F4E04323F0400383F0100353
:1030C80043F4004343F0800320F822300020704787
:1030D8000A7830F822309BB223F4804323F070033F
:1030E80083F4805343F4004343F0800320F82230F4
:1030F800ECE70B7B002B4BD14B7833B30A7830F8D5
:10310800223013F0400F0CD030F822309BB223F459
:10311800E04323F0700343F4004343F0C00320F876
:103128002230CB78012B33D00A7830F822309BB28A
:1031380023F4E04323F0400383F0200343F40043E7
:1031480043F0800320F8223022E00A7830F8223059
:1031580013F4804F0CD030F822309BB223F4E043B4
:1031680023F0700343F4404343F0800320F82230F7
:103178000A7830F822309BB223F4804323F070039E
:1031880083F4405343F4004343F0800320F8223093
:103198000020704711B98023A0F84C3000207047F8
:1031A800B0F858306FEA43436FEA53439BB2A0F834
:1031B800583000207047B0F8440080B27047B0F82B
:1031C80040309BB243F01003A0F840300020704715
:1031D800B0F840309BB223F010039BB2A0F8403007
:1031E8000020704701335B08024402F5806208E062
:1031F800087891F801C040EA0C2022F8020B02314D
:10320800013B002BF4D1704770B505460C464A784F
:10321800012A3BD00B7B002B40F0A6828B690A6900
:10322800934240F284829B1A8B61B5F8503015FAAC
:1032380083F3217803EBC103B3F80614C1F3090142
:10324800A3F806143E2A40F27682510912F01F0FA5
:1032580000D10139B3F8062492B2890289B20A432F
:1032680042F40042A3F80624227835F822309BB2B3
:1032780023F4804323F0700383F4405343F4004362
:1032880043F0800325F82230002070BD8E6909695B
:103298008E4200D90E46237B73B3E378022B4DD0C0
:1032A800236A9B1B2362237835F8231011F0400F03
:1032B80000F0F581002A40F0E281B5F8502015FAB7
:1032C80082F202EBC303B3F80624C2F30902A3F89F
:1032D80006243E2E40F2BA81710916F01F0F00D164
:1032E8000139B3F8062492B2890289B20A4342F43A
:1032F8000042A3F80624CBE1B6B23346E2886169FE
:103308002846FFF76FFFB5F8503015FA83F3227897
:1033180003EBC203A3F80264227835F822309BB28B
:1033280023F4E04323F0400383F0300343F40043E5
:1033380043F0800325F822300020A6E7236A99424B
:1033480080F06681227835F822309BB223F4E0437E
:1033580023F0700343F4014343F0800325F822303F
:10336800236A9B1B2362237835F8232012F0400F31
:1033780000F0A7806278B2BBB5F8502015FA82F247
:1033880002EBC303B3F80624C2F30902A3F8062428
:103398003E2E0FD9710916F01F0F00D10139B3F86D
:1033A800062492B2890289B20A4342F40042A3F881
:1033B80006241AE04EB9B3F806246FEA42426FEACF
:1033C800524292B2A3F806240FE0720816F0010FD9
:1033D80000D00132B3F8061489B2920292B20A43BD
:1033E800A3F8062401E0012A30D0B3B262896169EA
:1033F8002846FFF7F7FE636933446361236A22694D
:1034080093422DD99B1B23626378002B45D1B5F8D5
:10341800503015FA83F3227803EBC203B3F8022481
:10342800C2F30902A3F802243E2E1DD9710916F031
:103438001F0F00D10139B3F8022492B2890289B270
:103448000A4342F40042A3F8022428E0B5F85020C9
:1034580015FA82F202EBC303B2B2A3F80624C4E75A
:10346800002222621E46CFE74EB9B3F802246FEA63
:1034780042426FEA524292B2A3F802240FE0720865
:1034880016F0010F00D00132B3F8021489B292028B
:1034980092B20A43A3F8022401E0012B06D0B3B28A
:1034A800228961692846FFF79DFE35E7B5F8503057
:1034B80015FA83F3227803EBC203B2B2A3F802240D
:1034C800EDE76278B2BBB5F8502015FA82F202EB4C
:1034D800C303B3F80224C2F30902A3F802243E2E60
:1034E8000FD9710916F01F0F00D10139B3F8022462
:1034F80092B2890289B20A4342F40042A3F8022434
:103508001AE04EB9B3F802246FEA42426FEA524217
:1035180092B2A3F802240FE0720816F0010F00D04F
:103528000132B3F8021489B2920292B20A43A3F8A4
:10353800022401E0012A30D0B3B222896169284609
:10354800FFF750FE636933446361236A226993423B
:103558002DD99B1B23626378002B45D1B5F85030D9
:1035680015FA83F3227803EBC203B3F80624C2F3F7
:103578000902A3F806243E2E1DD9710916F01F0F63
:1035880000D10139B3F8062492B2890289B20A43FC
:1035980042F40042A3F8062428E0B5F8502015FAB2
:1035A80082F202EBC303B2B2A3F80224C4E70022FA
:1035B80022621E46CFE74EB9B3F806246FEA4242AC
:1035C8006FEA524292B2A3F806240FE0720816F08E
:1035D800010F00D00132B3F8061489B2920292B2F8
:1035E8000A43A3F8062401E0012B06D0B3B262898E
:1035F80061692846FFF7F6FD8EE6B5F8503015FAF2
:1036080083F3227803EBC203B2B2A3F80624EDE7F2
:10361800217835F8212092B222F4E24222F0700299
:1036280042F4004242F0800225F82120B5F85020EB
:1036380015FA82F2217802EBC1029BB2A2F8023499
:10364800228961692846FFF7CDFD65E64EB9B3F8D2
:1036580006246FEA42426FEA524292B2A3F8062465
:1036680016E0720816F0010F00D00132B3F8061404
:1036780089B2920292B20A43A3F8062408E0B5F888
:10368800502015FA82F202EBC303B2B2A3F8062463
:10369800B3B2628961692846FFF7A4FD3CE6B2BB74
:1036A800B5F8502015FA82F202EBC303B3F80224EE
:1036B800C2F30902A3F802243E2E0FD9710916F0AD
:1036C8001F0F00D10139B3F8022492B2890289B2DE
:1036D8000A4342F40042A3F8022421E04EB9B3F8A9
:1036E80002246FEA42426FEA524292B2A3F80224DD
:1036F80016E0720816F0010F00D00132B3F8021478
:1037080089B2920292B20A43A3F8022408E0B5F8FB
:10371800502015FA82F202EBC303B2B2A3F80224D6
:10372800B3B2228961692846FFF75CFDF4E50022FF
:103738008A611A4679E54AB9B3F806246FEA424223
:103748006FEA524292B2A3F806248DE5510812F0AE
:10375800010F00D00131B3F8062492B2890289B270
:103768000A43A3F806247FE5CB78022B4DD0012B22
:1037780040F02F8189692369994240F2E680C91A8D
:10378800A161F2B9B5F8502015FA82F2217802EB5E
:10379800C102B2F80214C1F30901A2F802143E2BC7
:1037A80040F2D780580913F01F0F00D10138B2F842
:1037B800021489B2800280B2014341F40041A2F8A8
:1037C80002146278002A40F0F680B5F8502015FA05
:1037D80082F2217802EBC102B2F80614C1F30901A2
:1037E800A2F806143E2B40F2CD80590913F01F0FA2
:1037F80000D10139B2F806349BB2890289B20B4371
:1038080043F40043A2F806342EE5F2B9B0F850307C
:1038180010FA83F30A7803EBC203B3F80224C2F365
:103828000902A3F802240A693E2A31D9510912F083
:103838001F0F00D10139B3F8022492B2890289B26C
:103848000A4342F40042A3F802246378002B51D1C2
:10385800B5F8503015FA83F3227803EBC203B3F8B6
:103868000624C2F30902A3F8062422693E2A28D9AD
:10387800510912F01F0F00D10139B3F8062492B292
:10388800890289B20A4342F40042A3F8062433E0CD
:103898004AB9B3F802246FEA42426FEA524292B23E
:1038A800A3F80224D1E7510812F0010F00D001312A
:1038B800B3F8022490B28A0292B20243A3F8022417
:1038C800C3E74AB9B3F806246FEA42426FEA5242A4
:1038D80092B2A3F806240FE0510812F0010F00D0AD
:1038E8000131B3F8062490B28A0292B20243A3F8D7
:1038F800062401E0012B1DD0E369002B3FF4B4AC92
:10390800227835F8221044F2400303EA01008B4381
:1039180002D000287FF4A8AC35F822309BB223F4FB
:10392800E04323F0700343F4004343F0C00325F859
:10393800223099E4B5F8503015FA83F3227803EB76
:10394800C203228AA3F80624D6E70023A3610B4604
:1039580017E74BB9B2F802146FEA41416FEA5141D7
:1039680089B2A2F802142CE7590813F0010F00D00D
:103978000131B2F8020480B2890289B20143A2F887
:1039880002141EE74BB9B2F806346FEA43436FEAF4
:1039980053439BB2A2F8063466E4590813F0010FAA
:1039A80000D00131B2F8063498B28B029BB20343BF
:1039B800A2F8063458E4012A7FF456ACB5F8502032
:1039C80015FA82F2217802EBC1029BB2A2F8063402
:1039D8004AE4012059E410B45C08024402F580620C
:1039E80007E032F8020B0870C0F307204870023174
:1039F800013C002CF5D113F0010F01D013880B7096
:103A08005DF8044B70470000104B1B780BB9012080
:103A1800704710B504464FF47A70B0FBF3F30C4AC4
:103A28001068B0FBF3F001F09DFE68B9072C01D9CE
:103A380001200AE0002221464FF0FF3001F07EFE0F
:103A4800044B1C60002000E0012010BDD8010020BC
:103A5800E0010020DC01002010B5042001F05CFE2C
:103A680001F0BAFE0720FFF7CFFF10B1012420466E
:103A780010BD0446FCF744FDF9E70000034B1B7832
:103A8800034A11680B441360704700BFD801002037
:103A9800DC0D0020014B1868704700BFDC0D0020CA
:103AA80038B50446FFF7F6FF0546B4F1FF3F02D0EC
:103AB800044B1B781C44FFF7EDFF401BA042FAD3D0
:103AC80038BD00BFD801002003689A6912F0020FC0
:103AD80001D000229A6203689A6912F0010F03D19B
:103AE8009A6942F001029A61704710B4019CC1F3CF
:103AF800090141EA02411943214321F000410268CA
:103B08005368640D04F4806444F07F7444F45834BA
:103B180044F47F7444F0030423EA04030B43536022
:103B28005DF8044B70472DE9F041044603689E692F
:103B380016F010067CD00D4690461022DA61002659
:103B480037462368986910F0200F30D17FBBB5F154
:103B5800FF3FF6D0FFF79EFFA0EB0800A84201D870
:103B6800002DEED121684B6803F4804394F842207D
:103B7800D2B2886910F4004F02D00BB9202A0ED1B6
:103B880023689B6913F0200FDBD1FFF783FFA0EBBD
:103B980008001928F4D946F020060127D1E74B6818
:103BA80043F480434B60FFF775FF8046E8E70FB9A1
:103BB8002022DA6146F0040601252268936913F48D
:103BC800807F05D046F001064FF48071D161012550
:103BD80013F4806F06D046F0080622684FF480611F
:103BE800D161012513F4007F24D046F00206236832
:103BF8004FF40072DA6101252046FFF765FF22685D
:103C0800536823F0FF7323F48B3323F4FF7323F0FB
:103C180001035360636C33436364202384F84130A9
:103C2800002384F8423084F840302846BDE8F0810B
:103C38000025C2E7002DF8D0DEE770B504460D4632
:103C4800164623689B6913F0020F22D13246294693
:103C58002046FFF768FFF0B9B5F1FF3FF1D0FFF755
:103C680019FF801BA84201D8002DEAD123689B695F
:103C780013F0020FE5D1636C43F020036364202343
:103C880084F84130002384F8423084F84030012021
:103C980000E0002070BD0120FCE72DE9F041054659
:103CA8000F46164698462C68A46937EA04040CBFE8
:103CB80001240024B44222D1B8F1FF3FF3D0FFF72A
:103CC800E9FE069BC01A404502D8B8F1000FEAD1B8
:103CD8002B689B6937EA03030CBF01230023B34217
:103CE800E1D16B6C43F020036B64202385F84130ED
:103CF800002385F8423085F84030012000E000209C
:103D0800BDE8F08170B504460D46164604E0236808
:103D18009B6913F0200F12D023689B6913F0200FC2
:103D28001BD1324629462046FFF7FDFEB8B9FFF7FA
:103D3800B1FE801BA842EAD8002DEDD1E7E7636CFD
:103D480043F020036364202384F84130002384F87F
:103D5800423084F84030012000E0002070BD01208E
:103D6800FCE7002859D010B5044690F84130002BE4
:103D780043D0242384F841302268136823F00103D8
:103D880013606368226823F0706313612268936884
:103D980023F400439360E368012B33D0A3682268BF
:103DA80043F404439360E368022B31D022685368DC
:103DB80043F0007343F4004353602268D36823F44C
:103DC8000043D360236962691343A169226843EA07
:103DD8000123D360E369216A22680B4313602268D8
:103DE800136843F00103136000206064202384F803
:103DF8004130206384F8420010BD80F84030FCF761
:103E08009BFBB6E7A368226843F400439360CAE7C4
:103E180023684FF400625A60C8E701207047000029
:103E28002DE9F04782B00F460A9E90F84110C9B2BA
:103E3800202940F0A38004469046994690F84030E7
:103E4800012B00F09F804FF0010A80F840A0FFF797
:103E580021FE05460090192352464FF400412046A2
:103E6800FFF71BFF002840F08F80212384F84130A2
:103E7800102384F8423000236364C4F82480A4F833
:103E88002A906363638D9BB2FF2B0AD9FF22228598
:103E9800414B00934FF0807339462046FFF725FECB
:103EA80018E0628D92B222853B4B00934FF000736D
:103EB800D2B239462046FFF718FE0BE0628D92B267
:103EC8002285002300934FF00073D2B23946204672
:103ED800FFF70BFE638D9BB2002B33D02A46314689
:103EE8002046FFF7AAFE002850D1626A236812789C
:103EF8009A62636A01336362638D9BB2013B9BB232
:103F08006385238D013B9BB22385628D92B2002A83
:103F1800E0D0002BDED100953346002280212046D8
:103F2800FFF7BBFEA0BB638D9BB2FF2BC6D9FF2258
:103F38002285002300934FF0807339462046FFF70F
:103F4800D4FDC7E72A4631462046FFF7DBFE08BB0B
:103F580023682022DA6121684B6823F0FF7323F479
:103F68008B3323F4FF7323F001034B6084F8412063
:103F7800002384F8423084F8403000E0022002B088
:103F8800BDE8F0870220FAE70120F8E70120F6E70C
:103F98000120F4E70120F2E700200080034690F8B2
:103FA8004120D2B2202A23D190F84020012A21D0E2
:103FB800012280F84020242280F84120006802680D
:103FC80022F0010202601868026822F4805202603E
:103FD800186802681143016019680A6842F0010212
:103FE8000A60202283F84120002083F840007047AF
:103FF8000220704702207047034690F84120D2B251
:10400800202A21D190F84020012A1FD0012280F8CF
:104018004020242280F841200068026822F0010232
:1040280002601868026822F4706242EA01220260A3
:1040380019680A6842F001020A60202283F84120C8
:10404800002083F840007047022070470220704724
:1040580082B0084B1A6E42F001021A661B6E03F01A
:1040680001030193019B044A53680343536002B060
:10407800704700BF00100240000001401F4AD3688B
:1040880003F00303D268C2F303120132022B0DD0EE
:10409800032B15D0012B1DD00020184BDB68C3F370
:1040A800416301335B00B0FBF3F070471448B0FB89
:1040B800F2F0124BDB68C3F3062303FB00F0ECE7D6
:1040C8001048B0FBF2F00D4BDB68C3F3062303FB8B
:1040D80000F0E2E7094B1B6813F0080F08D1074B03
:1040E800D3F89430C3F30323074A52F82300D4E7E4
:1040F800024B1B68C3F30313F6E700BF001002402E
:104108000024F4000048E801BC86000830B583B0FC
:104118000446214B9B6D13F0805F0CD001F048FAE8
:10412800D0B1B0F5007F17D0802C2CD82DD0702CB2
:104138002DD0002117E0184DAB6D43F08053AB65CF
:10414800AB6D03F080530193019B01F031FAAB6D25
:1041580023F08053AB65E3E7802C03D9A02C10D95A
:10416800022100E000210D4A136823F00F030B43DE
:104178001360136803F00F038B420AD1002003B0C9
:1041880030BD0121EFE70321EDE70221EBE7012133
:10419800E9E70120F3E700BF0010024000200240D9
:1041A800314A9368D26802F0030213F00C030AD074
:1041B8000C2B06D0042B1FD0082B20D00020014642
:1041C80010E0012AF6D1284A126812F0080F0CD123
:1041D800254AD2F89420C2F30322244951F8221028
:1041E80043B100200C2B0DD070471F4A1268C2F350
:1041F8000312F2E70846F5E71D480021F2E71D48DB
:104208000021EFE7184BDA6802F00302DB68C3F31A
:1042180003130133022A0AD0032A1AD0B1FBF3F19F
:10422800114BD868C0F3062001FB00F008E01048E5
:10423800B0FBF3F00C4BDB68C3F3062303FB00F081
:10424800094BDB68C3F3416301335B00B0FBF3F058
:10425800CAE70848B0FBF3F0034BDB68C3F3062357
:1042680003FB00F0ECE700BF00100240BC8600082A
:104278000024F4000048E80108B5FFF791FF044B5B
:104288009B68C3F30313034AD35CD84008BD00BF3F
:1042980000100240FC860008002800F0B683F0B544
:1042A80083B004469E4B9D6805F00C05DE6806F059
:1042B8000306036813F0100F56D00DB30C2D1DD054
:1042C800E369002B00F0BC80954A136843F00103B2
:1042D8001360FFF7DFFB0746914B1B6813F0020FD3
:1042E80040F09B80FFF7D6FBC01B0228F4D98C4B0B
:1042F8001B6813F0020FEFD1032091E3012EDFD1E9
:10430800874B1B6813F0020F03D0E369002B00F002
:104318007E83606A824B1B6813F0080F57D0804B6E
:104328001B6803F0F003984258D87D4B1A6842F096
:1043380008021A601A6822F0F002616A0A431A60D9
:104348005A6822F47F42216A42EA01225A60002D0B
:104358005CD0FFF791FF734B1860734B1868FFF739
:1043680053FB002840F05C83236813F0010F00F032
:104378008B80082D7FD00C2D7BD06368B3F5803FF0
:1043880000F0A780B3F5A02F00F0A980644B1A684D
:1043980022F480321A601A6822F480221A60636854
:1043A800002B00F0A980FFF775FB07465C4B1B68E4
:1043B80013F4003F68D1FFF76DFBC01B6428F5D9E3
:1043C800574B1B6813F4003FF0D1032028E3544BEC
:1043D800D3F894301B0903F0F003A4E7FFF796FE27
:1043E800002840F016834E4B1A6842F008021A6003
:1043F8001A6822F0F002616A0A431A605A6822F4C5
:104408007F42216A42EA01225A60A2E7606AFFF706
:104418007DFE00289DD0012002E3414B1A6842F03E
:1044280008021A601A6822F0F002616A0A431A60E8
:104438005A6822F47F42216A42EA01225A6093E7CD
:10444800374A136823F001031360FFF723FB07467D
:10445800334B1B6813F0020F86D0FFF71BFBC01B02
:104468000228F5D92E4B1B6813F0020FF0D0032059
:10447800D6E2032E81D12A4B1B6813F4003F03D0E8
:104488006368002B00F0C782236813F0020F60D026
:10449800042D4DD00C2D49D0E368002B00F09080FE
:1044A8001F4A136843F480731360FFF7F3FA054655
:1044B8001B4B1B6813F4806F79D1FFF7EBFA401B95
:1044C8000228F5D9164B1B6813F4806FF0D103202E
:1044D800A6E2134A136843F4803313605FE703F1DD
:1044E8008043A3F53C331A6842F480221A601A68A4
:1044F80042F480321A6052E7FFF7CCFA0746084BBD
:104508001B6813F4003FBFD0FFF7C4FAC01B642830
:10451800F5D9034B1B6813F4003FF0D003207FE26A
:1045280000100240E0010020DC010020022EB3D17F
:10453800A94B1B6813F4806F03D0E368002B00F0CD
:104548006C82A54A536823F0FE43216943EA01635C
:104558005360236813F0080F70D06369002B50D0A4
:10456800A369002B45D19C4AD2F8943023F010035C
:10457800C2F89430984AD2F8943043F00103C2F854
:104588009430FFF787FA0546934BD3F8943013F02D
:10459800020F53D1FFF77EFA401B0728F4D98E4B40
:1045A800D3F8943013F0020FEED1032038E28A4A90
:1045B800536823F0FE43216943EA01635360C8E767
:1045C800854A136823F480731360FFF763FA05467E
:1045D800814B1B6813F4806FBBD0FFF75BFA401B5D
:1045E8000228F5D97C4B1B6813F4806FF0D00320A8
:1045F80016E2794AD2F8943043F01003C2F89430A6
:10460800B8E7754AD2F8943023F00103C2F8943021
:10461800FFF740FA0546704BD3F8943013F0020FB9
:104628000CD0FFF737FA401B0728F4D96A4BD3F8A8
:10463800943013F0020FEED00320F1E1236813F059
:10464800040F00F0F080644B9B6D13F0805F24D161
:10465800614B9A6D42F080529A659B6D03F08053CE
:104668000193019B01255D4B1B6813F4807F16D0D5
:10467800A36813F0010F33D013F0040F28D0564B62
:10468800D3F8902042F00402C3F89020D3F8902089
:1046980042F00102C3F890202FE00025E3E74F4ADB
:1046A800136843F480731360FFF7F4F906464B4B25
:1046B8001B6813F4807FDBD1FFF7ECF9801B02281D
:1046C800F5D9464B1B6813F4807FF0D10320A7E18E
:1046D800414AD2F8903043F00103C2F890300CE020
:1046E8003D4BD3F8902022F00102C3F89020D3F874
:1046F800902022F00402C3F89020A368002B53D026
:10470800FFF7C8F90646344BD3F8903013F0020F80
:104718000ED1FFF7BFF9801B41F288339842F2D9D6
:104728002D4BD3F8903013F0020FECD1032077E132
:10473800A36813F0800F1BD0274AD2F8903043F0BB
:104748008003C2F89030244BD3F8903013F4006FF4
:1047580068D1FFF79FF9801B41F288339842F2D95C
:104768001D4BD3F8903013F4006FECD1032057E1C0
:10477800194AD2F8903023F08003C2F89030164BD3
:10478800D3F8903013F4006F4CD0FFF783F9801BF7
:1047980041F288339842F2D90F4BD3F8903013F492
:1047A800006FECD003203BE1FFF774F906460A4B93
:1047B800D3F8903013F0020F12D0FFF76BF9801B7B
:1047C80041F288339842F2D9034BD3F8903013F072
:1047D800020FECD0032023E10010024000700040DB
:1047E800974BD3F8903013F0800F1BD0944AD2F82F
:1047F800903023F08003C2F89030914BD3F890307A
:1048080013F4006F0ED0FFF745F9801B41F288338F
:104818009842F2D98A4BD3F8903013F4006FECD059
:104828000320FDE015BB236813F0200F41D0A36AD5
:1048380013B3834AD2F8983043F00103C2F8983092
:10484800FFF728F905467E4BD3F8983013F0020F8E
:104858002FD1FFF71FF9401B0228F4D9784BD3F862
:10486800983013F0020FEED10320D9E0744A936D0B
:1048780023F080539365D6E7714AD2F8983023F035
:104888000103C2F89830FFF705F905466C4BD3F8D9
:10489800983013F0020F0CD0FFF7FCF8401B0228E9
:1048A800F4D9674BD3F8983013F0020FEED00320F9
:1048B800B6E0E36A002B00F0B280614A926802F029
:1048C8000C020C2A73D0022B18D05D4A136823F00F
:1048D80080731360FFF7DEF80446594B1B6813F02A
:1048E800007F5DD0FFF7D6F8001B0228F5D9544B9E
:1048F8001B6813F0007FF0D0032091E0504A136842
:1049080023F080731360FFF7C5F805464C4B1B680E
:1049180013F0007F0BD0FFF7BDF8401B0228F5D934
:10492800474B1B6813F0007FF0D0032078E0444A1F
:10493800D36844491940236B606B013843EA00137C
:10494800A06B43EA0023206C4008013843EA405337
:10495800606C4008013843EA4063E06B43EAC06397
:104968001943D160136843F080731360D36843F030
:104978008073D360FFF78EF80446314B1B6813F041
:10498800007F0BD1FFF786F8001B0228F5D92C4BC6
:104998001B6813F0007FF0D1032041E000203FE0C6
:1049A800274AD168284B0B40D360002038E0012B00
:1049B80038D0234BDB6803F00301226B914233D1DB
:1049C80003F0F002616B0139B2EB011F2ED103F441
:1049D800FE42A16BB2EB012F2AD103F07842E16BC2
:1049E800B2EBC16F26D103F4C001226C5208013A20
:1049F800B1EB425F20D103F0C063626C5208013A08
:104A0800B3EB426F1AD100200AE001207047012061
:104A180006E0012004E0012002E0012000E000207F
:104A280003B0F0BD0120FBE70120F9E70120F7E71B
:104A38000120F5E70120F3E70120F1E70120EFE786
:104A4800001002400C809F01FCFFEEFE002800F0E1
:104A5800E980F8B50D460446764B1B6803F00F0352
:104A68008B420BD2734A136823F00F030B43136076
:104A7800136803F00F038B4240F0D680236813F0CD
:104A8800020F0CD0A2686C4B9B6803F0F0039A42AB
:104A980005D969498B6823F0F0031A438A602368B3
:104AA80013F0010F76D06368032B0DD0022B25D0AD
:104AB800002B3CD103F1804303F504331B6813F04A
:104AC800020F21D10120A6E05B4B1B6813F0007F89
:104AD80001D101209FE0FFF7D1FA584B98422DD918
:104AE800554B9B6813F0F00F2AD1534A936823F073
:104AF800F00343F080039360802724E04E4B1B684B
:104B080013F4003F00F09280FFF74AFB4B4B9842AA
:104B180018D9494B9B6813F0F00F37D1464A936870
:104B280023F0F00343F08003936080270BE0424BAF
:104B38001B6813F4806FE7D101206CE0002702E0C6
:104B4800002700E000273C4A936823F003036168CC
:104B58000B439360FEF79EFF0646374B9B6803F0B6
:104B68000C036268B3EB820F12D0FEF793FF801B31
:104B780041F288339842F0D92F4B9B6803F00C031D
:104B88006268B3EB820FE8D0032044E00027DAE73D
:104B9800002F41D1236813F0020F0CD0A268264BD6
:104BA8009B6803F0F0039A4205D223498B6823F0EF
:104BB800F0031A438A601F4B1B6803F00F03AB42D4
:104BC8000AD91C4A136823F00F032B431360136898
:104BD80003F00F03AB422BD1236813F0040F06D068
:104BE800154A936823F4E063E1680B4393602368F4
:104BF80013F0080F07D0104A936823F46053216913
:104C080043EAC1039360FFF737FB0D4B18600D4B68
:104C18001868FEF7F9FEF8BD074A936823F0F00319
:104C28009360B7E7012070470120F4E70120F2E71D
:104C38000120F0E7002002400010024000B4C40444
:104C4800E0010020DC01002070B504460E46036830
:104C5800022B51D0032B56D0012B01D0012070BD5F
:104C68002F4B1B6813F0020F54D02D4A136823F002
:104C780080531360FEF70EFF0546294B1B6813F09F
:104C8800005F09D0FEF706FF431B022BF5D9244B22
:104C98001B6813F0005F3FD186B921484369214A58
:104CA8001A40A168E368DB0643EA01236168013919
:104CB80043EA011321680B431A434261184A1368F7
:104CC80043F080531360FEF7E5FE0546144B1B685E
:104CD80013F0005F09D1FEF7DDFE431B022BF5D967
:104CE8000F4B1B6813F0005F18D00D4A53692169F8
:104CF8000B4353610020B2E7094B1B6813F4806F24
:104D0800B3D10120ABE7064B1B6813F4C02FACD11D
:104D18000120A4E70120A2E70320A0E703209EE7E3
:104D2800001002400C80FF0770B504460E46036869
:104D3800022B52D0032B57D0012B01D0012070BD7C
:104D4800454B1B6813F0020F7FD0434A136823F0CA
:104D580080631360FEF79EFE05463F4B1B6813F009
:104D6800006F09D0FEF796FE431B022BF5D93A4B8C
:104D78001B6813F0006F6AD1002E3CD136480369D6
:104D8800364A1A40A168E368DB0643EA01236168F2
:104D9800013943EA011321680B431A4302612E4A81
:104DA800136843F080631360FEF774FE05462A4BD0
:104DB8001B6813F0006F09D1FEF76CFE431B022B32
:104DC800F5D9254B1B6813F0006F42D0224A1369AE
:104DD800A1690B4313610020B1E71F4B1B6813F453
:104DE800806FB2D10120AAE71B4B1B6813F4C02FB8
:104DF800ABD10120A3E7012E13D017480369184A45
:104E08001A40A16863695B08013B5B0643EA01231A
:104E18006168013943EA011321680B431A430261AF
:104E2800BDE70D4803690F4A1A40A16823695B086A
:104E3800013B5B0543EA01236168013943EA011339
:104E480021680B431A430261A9E7012077E7032091
:104E580075E7032073E700BF001002400C80FF07CE
:104E68000C80FFF90C809FFF2DE9F04182B00446C9
:104E7800036813F4006F34D0C36E402B1FD00BD8D7
:104E880023B3202B05D100212030FFF7DDFE064695
:104E980021E001273E4626E0602B20D0802B0BD155
:104EA8000026694AD2F89C3023F0E003E16E0B43F8
:104EB800C2F89C30002716E001273E4613E0624AFC
:104EC800D36843F48033D3600026EAE70021043036
:104ED800FFF72AFF0646002EE3D0374603E00026F8
:104EE800DFE700273E46236813F4805F33D0236F43
:104EF800B3F5007F22D00DD833B3B3F5807F06D148
:104F0800002104F12000FFF79FFE064608E0012774
:104F18003E4620E0B3F5407F02D0B3F5806F0AD15A
:104F2800C6B9494AD2F89C3023F4E063216F0B4399
:104F3800C2F89C300FE001273E460CE0424AD36895
:104F480043F48033D360EBE70021201DFFF7ECFE2C
:104F58000646E5E73746236813F4003F7DD03A4B11
:104F68009B6D13F0805F4FD1374B9A6D42F08052A2
:104F78009A659B6D03F080530193019B4FF00108E4
:104F8800324A136843F480731360FEF783FD0546C5
:104F98002E4B1B6813F4807F09D1FEF77BFD401B65
:104FA8000228F5D9294B1B6813F4807F48D0002EBE
:104FB8004ED1254BD3F8903013F4407316D0D4F863
:104FC80090209A4212D0204AD2F8903023F44073AD
:104FD800D2F8901041F48031C2F89010D2F89010B5
:104FE80021F48031C2F89010C2F8903013F0010F0C
:104FF8000DD1154AD2F8903023F44073D4F89010AC
:105008000B43C2F8903024E04FF00008B8E7FEF7F1
:1050180041FD05460C4BD3F8903013F0020FE8D150
:10502800FEF738FD401B41F288339842F2D9064B0F
:10503800D3F8903013F0020FDBD103273E4608E087
:1050480003273E4605E000BF001002400070004004
:105058003746B8F1000F40F05181236813F0010F73
:1050680008D0B84AD2F8883023F00303616B0B43A9
:10507800C2F88830236813F0020F08D0B14AD2F87A
:10508800883023F00C03A16B0B43C2F888302368E7
:1050980013F0040F08D0AB4AD2F8883023F030035D
:1050A800E16B0B43C2F88830236813F0080F08D06F
:1050B800A44AD2F8883023F0C003216C0B43C2F80D
:1050C8008830236813F0100F08D09E4AD2F8883031
:1050D80023F44073616C0B43C2F88830236813F0E3
:1050E800200F08D0974AD2F8883023F44063A16C87
:1050F8000B43C2F88830236813F4007F08D0914A24
:10510800D2F8883023F44023E16D0B43C2F888308D
:10511800236813F4806F08D08A4AD2F8883023F4C1
:105128004013216E0B43C2F88830236813F4800FB4
:1051380008D0844AD2F8883023F44003616E0B43C8
:10514800C2F88830236813F0007F0CD0A36EB3F147
:10515800807F00F0D980B3F1007F00F0E580002B5C
:1051680000F0D7800127236813F0400F08D0754A54
:10517800D2F8883023F44053E16C0B43C2F88830EE
:10518800236813F0800F08D06E4AD2F8883023F4D1
:105198004043216D0B43C2F88830236813F4807FA5
:1051A80008D0684AD2F8883023F44033616D0B4345
:1051B800C2F88830236813F4801F08D0614AD2F8F7
:1051C8009C3023F00303A16D0B43C2F89C30236885
:1051D80013F4005F11D05B4AD2F8883023F04063A3
:1051E800616F0B43C2F88830636FB3F1006F00F052
:1051F800A380B3F1806F00F0A780236813F4002F19
:105208001FD0A36FB3F5804F00F0A7804D4AD2F8A6
:10521800881021F040610B43C2F88830D2F89C30E6
:1052280023F48043C2F89C30A36FB3F1806F00F081
:105238009C80B3F1006F00F0A180B3F5804F00F0BF
:10524800A380236813F4802F11D03E4AD2F8883007
:1052580023F04063E16F0B43C2F88830E36FB3F18A
:10526800006F00F09780B3F1806F00F0988023689A
:1052780013F4804F0FD0334AD2F8883023F04053CC
:10528800D4F880100B43C2F88830D4F88030B3F1DA
:10529800805F00F08D80236813F4803F09D0294A8D
:1052A800D2F89C3023F00403D4F884100B43C2F8DE
:1052B8009C30236813F4001F09D0224AD2F89C308E
:1052C80023F01803D4F888100B43C2F89C302368E5
:1052D80013F0807F0ED01B4AD2F89C3023F4401381
:1052E800D4F88C100B43C2F89C30D4F88C30B3F54A
:1052F800001F66D0384602B0BDE8F081114A936DB0
:1053080023F080539365A8E60E4AD36843F48013CC
:10531800D3607EB90B4AD2F8883023F04073A16E6F
:105328000B43C2F888301EE70021201DFFF7FCFC64
:105338000646EEE7374616E7D36843F48013D36092
:105348005BE700BF001002400121201DFFF7ECFCC5
:1053580000283FF452AF07464FE71C4AD2F89C306A
:1053680043F48043C2F89C305EE70121201DFFF71B
:10537800DBFC00283FF465AF074662E7134AD368B1
:1053880043F48013D3605CE7104AD36843F4803356
:10539800D36056E7D36843F48013D36067E70121ED
:1053A800201DFFF7C1FC00283FF461AF07465EE708
:1053B8000221201DFFF7B8FC00283FF46CAF074618
:1053C80069E7D36843F48013D36093E70010024081
:1053D800F0B5002365E085685E000324B44025EA43
:1053E8000405CC68B4402C438460456825EA0C0564
:1053F8004C68C4F300149C402C43446062E0DD0810
:10540800083550F8254003F0070C4FEA8C0C4FF094
:105418000F0E0EFA0CFE24EA0E0E0C6904FA0CF4B8
:1054280044EA0E0440F8254063E0062400E0002426
:1054380004FA0EF42C43564D0CF1180C45F82C4088
:105448002D68D44325EA02064F6817F4801F01D05F
:1054580042EA05064E4D2E606D6804EA05064F685F
:1054680017F4001F01D042EA0506494D6E60D5F8D1
:10547800845004EA05064F6817F4003F01D042EA59
:105488000506434DC5F88460D5F880502C404E6819
:1054980016F4803F01D042EA05043D4AC2F8804034
:1054A80001330A6832FA03F471D04FF0010C0CFA98
:1054B80003FC1CEA0202F3D04C6804F00304013C2C
:1054C800012C88D94C6804F00304032C0CD0C46860
:1054D8005D004FF0030C0CFA05FC24EA0C0C8C68F8
:1054E800AC4044EA0C04C4604C6804F00304022C89
:1054F80085D004684FEA430E4FF0030C0CFA0EFCFB
:1055080024EA0C0C4C6804F0030404FA0EF444EA90
:105518000C0404604C6814F4403FC1D04FEA930C6B
:105528000CF118051A4C54F8255003F0030E4FEAF5
:10553800CE0E0F2404FA0EF425EA0405154CA042F9
:105548003FF475AF04F58064A04216D004F580647A
:10555800A04214D004F58064A04212D004F58064FF
:10556800A04210D004F58064A0420ED004F58064F7
:10557800A0423FF45AAF07245AE7012458E702240F
:1055880056E7032454E7042452E7052450E7F0BD06
:1055980000F40240000002420369194201D00120D0
:1055A8007047002070470AB1816170478162704777
:1055B800024B186800F4C060704700BF00700040DC
:1055C800024A536843F48063536070470070004098
:1055D800024A936843F48043936070470070004028
:1055E800074B1B6913F4805006D113F4004F00D009
:1055F80070474FF4004070474FF48050F8E700BF01
:105608000070004038B505461E4B1C68FFF7E8FFE0
:10561800B0F5004F2DD004F4C0641A4BDB6813F4C6
:10562800004F28D1AC4228D0164A136823F4C0632F
:105638002B431360144B1B685B09144AA2FB03231A
:10564800DB09322202FB03F3114AA2FB0323DB0826
:10565800013300E0013B0B4A526912F4806F01D01C
:10566800002BF7D1074B5B6913F4806F07D100203B
:1056780038BD0120FCE70120FAE70020F8E7032005
:10568800F6E700BF00700040E0010020C55A7C0A20
:10569800CDCCCCCC002807DB00F01F024009012349
:1056A8009340024A42F82030704700BF00E100E012
:1056B800002808DB4901C9B200F1604000F56140EB
:1056C80080F80013704700F00F004901C9B2014B80
:1056D8001954704714ED00E000B500F00700C0F160
:1056E800070CBCF1030F28BF4FF0030CC31C062B9B
:1056F8000FD9031F4FF0FF3E0EFA0CF021EA00010C
:1057080099400EFA03FE22EA0E0241EA02005DF811
:1057180004FB0023EEE70000074AD36823F4E063A4
:105728001B041B0C000200F4E060034343F0BF635A
:1057380043F40033D360704700ED00E010B5044631
:10574800054BD868C0F30220FFF7C6FF0146204684
:10575800FFF7AEFF10BD00BF00ED00E008B5FFF792
:1057680099FF08BD0138B0F1807F0BD24FF0E023DC
:105778005861054AE02182F8231000209861072229
:105788001A6170470120704700ED00E0074B1B6865
:1057980013F0010F07D1054A136823F004030343EC
:1057A8001360002070470120704700BF00040340C9
:1057B800034A136843F0010313600020704700BFD9
:1057C80000040340034AD2F8883043F47003C2F857
:1057D8008830704700ED00E02F4B1B6813F0080F6E
:1057E80016D12D4BD3F89430C3F303232B4A52F828
:1057F8002320294B9B6803F00C030C2B48D8DFE8C7
:1058080003F00C4747470F474747134747471700D9
:10581800214B1B68C3F30313E8E7214B1A6028E008
:105828001F4B204A1A6024E01D4B1F4A1A6020E0D3
:10583800194BD96801F00301DB68C3F30313013383
:10584800022904D003291FD0B2FBF3F202E0154A63
:10585800B2FBF3F21049CB68C3F3062302FB03F350
:10586800CA68C2F3416201325200B3FBF2F30C4A38
:105878001360094B9B68C3F303130C4AD15C084AB5
:105888001368CB4013607047074AB2FBF3F2E1E7B5
:10589800034B1A60EDE700BF00100240BC86000809
:1058A800E00100200024F4000048E801FC8600081C
:1058B80098B108B503460020C3F8B802C3F8C4027B
:1058C800C3F8D00209B1C3F8B412012183F89C12BD
:1058D8001A701846FBF7EEFD08BD0320704710B597
:1058E80082B00023ADF8063089B10446C0F8B8127A
:1058F800CB6A23B10DF106009847C4F8D002D4F85A
:10590800D8320133C4F8D832002002B010BD0320C9
:10591800FBE708B5FBF752FE08BD08B5D0F8B8326A
:1059280013B11B68984708BD0020FCE708B5D0F8FC
:10593800B8325B68984700B908BD0320FCE738B562
:10594800044600F2AA25284600F0C9F90123C4F844
:105958009432B4F8B032C4F8983294F8AA1201F02C
:105968001F03012B0DD0022B10D02BB101F08001A9
:105978002046FBF73EFE03E02946204600F084FB64
:1059880038BD2946204600F0BAFBF9E729462046EB
:1059980000F0F7FBF4E7F8B50446012380F89C32E1
:1059A8000023C0F894324360C0F8A43280F8A032D3
:1059B800D0F8B832DBB15B68DBB100219847074605
:1059C800C8B94023002211462046FBF7FFFD0126F7
:1059D800A4F864614025C4F860512B460022802158
:1059E8002046FBF7F3FDA68425623846F8BD00275C
:1059F800E7E70027E5E70327E3E70174002070479E
:105A080090F89C32DBB2042B04D090F89C32DBB2C5
:105A180080F89D32042380F89C320020704790F86B
:105A28009C32DBB2042B01D00020704790F89D32E5
:105A3800DBB280F89C32F7E708B590F89C32DBB20D
:105A4800032B01D0002008BDD0F8B832002BF9D0C4
:105A5800DB69002BF6D09847F4E708B5D0F8D432C4
:105A6800AE3350F823205AB190F89C32DBB2032BA6
:105A780001D0002008BD136A23B198470020F9E738
:105A88000320F7E70020F5E708B5D0F8D432AE33A5
:105A980050F823205AB190F89C32DBB2032B01D086
:105AA800002008BD536A23B198470020F9E7032076
:105AB800F7E70020F5E70020704708B5012380F8D4
:105AC8009C32D0F8B83223B15B680179984710B995
