:020000040800F2
:1000000000000320AD5900088B0400088D0400088F
:100010008F0400089104000893040008FD590008AB
:10002000000000000000000000000000950400082F
:100030009704000800000000990400089B040008D1
:10004000FD590008FD590008FD590008FD59000838
:10005000FD590008FD590008FD590008FD59000828
:10006000FD590008FD590008FD590008FD59000818
:10007000FD590008FD590008FD590008FD59000808
:10008000FD590008FD590008FD590008FD590008F8
:10009000FD590008FD590008FD590008FD590008E8
:1000A000FD590008FD590008FD590008FD590008D8
:1000B000FD590008FD590008FD590008FD590008C8
:1000C000FD590008FD590008FD590008FD590008B8
:1000D000FD590008FD590008FD590008FD590008A8
:1000E000FD590008FD590008FD590008FD59000898
:1000F000FD590008FD590008FD590008FD59000888
:10010000FD590008FD590008FD590008FD59000877
:10011000FD590008FD590008FD590008FD59000867
:10012000FD590008FD590008FD590008FD59000857
:10013000FD590008FD590008FD590008FD59000847
:10014000FD590008FD590008FD590008FD59000837
:10015000FD590008FD590008FD590008FD59000827
:10016000FD590008A5040008FD590008FD590008C4
:10017000FD59000800000000FD59000800000000C3
:10018000FD590008FD590008FD590008FD590008F7
:10019000FD590008FD590008FD590008FD590008E7
:1001A000FD590008FD590008FD590008FD590008D7
:1001B000FD590008FD590008FD590008FD590008C7
:1001C000FD590008FD590008FD590008FD590008B7
:1001D000FD590008FD590008FD590008FD590008A7
:1001E000FD590008FD590008FD590008FD59000897
:0801F000FD59000800000000A9
:1001F8000348044B834202D0034B03B118477047AE
:10020800000300200003002000000000064B0749FF
:10021800C91A891048BF0131491003D0044B0BB1EA
:1002280001481847704700BF000300200003002062
:100238000000000010B5064C237843B9FFF7D8FF3B
:10024800044B13B10448AFF300800123237010BDA1
:100258000003002000000000B869000808B5054B3D
:100268001BB105490548AFF30080BDE80840FFF71A
:10027800CDBF00BF0000000004030020B8690008DB
:100288002DE9F0418AB00024059406940794089457
:1002980009942F4BDA6C42F00402DA64DA6C02F04B
:1002A80004020192019ADA6C42F08002DA64DA6C94
:1002B80002F080020292029ADA6C42F00102DA64D9
:1002C800DA6C02F001020392039ADA6C42F002023D
:1002D800DA64DB6C03F002030493049B1D4F22468F
:1002E8003F21384604F010FB1B4D01224FF480518A
:1002F800284604F009FB43F6FF730593069402268B
:100308000796DFF8588005A9404604F019FA4FF41B
:10031800004305930694079405A9404604F010FA93
:100328003F2305930124069407960326089605A9FA
:10033800384604F005FA4FF4805305930694079461
:10034800089605A9284604F0FBF90AB0BDE8F08133
:10035800001002400000024200040242000802426B
:1003680072B6FEE708B5002004F0C2FB18B904F025
:10037800D1FB10B908BDFFF7F3FFFFF7F1FF00004D
:1003880008B51348134B0360A3F13D53A3F5772336
:10039800A3F605334360002383600122C260036132
:1003A80043618361C361036202F0A9FE50B9002171
:1003B800074802F0C1FF38B90021054802F0EAFFFA
:1003C80020B908BDFFF7CCFFFFF7CAFFFFF7C8FF4A
:1003D8001C0300200058004000B599B048220021B5
:1003E80006A806F0E3F8002001900290039004901C
:1003F800059004F0B9FA20BB012306934FF480332B
:100408000793022311930322129213930C2214923E
:10041800072215921693179306A803F0F5F890B9DA
:100428000F2301930323029300230393049305935B
:1004380004210DEB010003F0C1FC30B919B05DF8DF
:1004480004FBFFF78DFFFFF78BFFFFF789FF08B568
:1004580002F0D0FCFFF7C0FFFFF712FFFFF782FFA3
:10046800FFF78EFF00F06CFCA12000F059FABF20C6
:1004780000F056FA00F0A6F9BF21A12000F0D0FA4A
:10048800F8E7FEE7FEE7FEE7FEE7FEE7704770479E
:10049800704708B502F0C0FC08BD000008B5024866
:1004A80001F0C5FA08BD00BF5005002000B583B0B3
:1004B8000B4B1A6E42F001021A661A6E02F0010224
:1004C8000092009A9A6D42F080529A659B6D03F0F3
:1004D80080530193019B04F02DFA03B05DF804FBEF
:1004E8000010024010B5AEB00446002129912A91AF
:1004F8002B912C912D91942204A806F057F823688B
:100508002E4A934204D02E4A93422CD02EB010BDCE
:100518004023049304A803F05FFE08BB294CE36C56
:1005280043F00203E364E36C03F002030093009BCF
:100538004FF44073299312232A9300232B932C936F
:1005480004232D9329A9204804F0FAF8A36D43F455
:100558000013A365A36D03F400130193019BD5E772
:10056800FFF7FEFEDAE78023049304A803F034FEC5
:1005780008BB144CE36C43F00203E364E36C03F040
:1005880002030293029B4FF4C043299312232A9338
:1005980000232B932C9304232D9329A90A4804F0B4
:1005A800CFF8A36D43F48003A365A36D03F4800320
:1005B8000393039BAAE7FFF7D3FEDAE70054004052
:1005C80000580040001002400004024208B5194BD0
:1005D80001221A70184A12785A70184A11789970BC
:1005E8005178D97091781971D178597111799971B7
:1005F8005279DA71124B02221A70124A12785A7022
:10060800114B1B781BB9114B1B784BB908BD08223D
:1006180008490F4805F0A4F90B4B00221A70F2E7BD
:10062800022207490A4805F09BF9084B00221A7074
:10063800ECE700BF7403002083030020840300203C
:1006480070030020820300207C0300207D0300202B
:100658004408002008B545F2602398425CD021D8B0
:10066800E72813D8E02860D2A0F1A8039BB2062B94
:1006780000F2918089B3A8380122824047490B785B
:1006880013430B70464B01221A7008BD45F2202314
:10069800984205D100293BD0424B02221A70F4E758
:1006A80000235CE047F60303984220D047F6040392
:1006B800984210D10029E8D03B4B1B78062BE4D098
:1006C8000133DBB2384A1370384AD05C024601461F
:1006D80000F096F9D9E7002341E0A83801238340C8
:1006E800DB435BB22D490A7813400B70CAE7002937
:1006F800CBD02D4B1B78002BC7D0013BDBB22A4A4D
:1007080013702A4AD05C0246014600F079F9BCE72A
:10071800244B00221A70B8E70029B6D0244A13786F
:10072800B3FA83F35B091370AFE751B1E0380122E4
:10073800824020490B7813430B701F4B01221A701B
:10074800A3E7E03801238340DB435BB219490A7809
:1007580013400B70F1E7194AD25C92B10133052BB3
:1007680093DC0029F7D1154AD25C8242F6D1134AAC
:10077800D154134A1378013B13700F4B01221A709E
:1007880083E70E4AD0540E4A1378013313700A4B8C
:1007980001221A7079E70023E1E700BF82030020F5
:1007A8007D0300207F0300207E030020706C00087A
:1007B80080030020830300207C03002084030020A2
:1007C80081030020F8B5254B00261E605E609E6000
:1007D800012427E00021224B1A78224B1B781A4467
:1007E800C6EBC6004300542000FB02332B441E4ACC
:1007F80032F81300FFF72EFF1C4A32F81630634018
:1008080022F816300135EDB26400A4B20D2D08D8D7
:100818003C42F7D0114B33F816302342DAD001218D
:10082800D9E70136052E16DC012000FA06F2104B36
:100838005A6102F003FB0F4B1B69C3F30D03074A10
:1008480022F81630094A32F8162083EA0207934242
:10085800E7D00025DAE7FFF7B9FEF8BD98030020D6
:10086800800300207F030020D06900088C0300204B
:10087800000002420008024200B583B013460B4A4A
:10088800117053704FF4FA6300930223014608482D
:1008980002F094FC30B10146064805F0D1F803B0E7
:1008A8005DF804FB044805F0A7FCF8E728050020DC
:1008B8001C030020786C00088C6C000870B582B0AE
:1008C80006460D46002417E0E218013315F802C069
:1008D8000F4A02F803C00F2BF6DD4FF4FA630093BA
:1008E80011230B4A31460B4802F068FC014648B117
:1008F800094805F0A5F81034BF2C07DC044B1C7020
:100908000023E8E7054805F077FCF4E702B070BD7E
:10091800280500201C0300209C6C0008B06C00080F
:1009280038B505460146214805F08AF8C522FE215A
:100938002846FFF7A1FF0022FD212846FFF79CFF6C
:10094800002405E0FF22E1B22846FFF795FF0134B5
:10095800172CF7DDC522FE212846FFF78DFF01225F
:10096800FD212846FFF788FF002405E00022E1B2B8
:100978002846FFF781FF0134BF2CF7DDC522FE2191
:100988002846FFF779FF0322FD212846FFF774FF69
:10099800FF2201212846FFF76FFF01220021284688
:1009A800FFF76AFF642002F049FA38BDC06C0008FE
:1009B8005F281DD810B582B00E4C54F82000019065
:1009C8009DF804009DF805E00B4C00EB400C04EB8F
:1009D8008C1C0CF80E109DF806100CF801209DF8E0
:1009E80007200CF80230054B01221A7002B010BD26
:1009F800704700BF00000020A8030020A4030020C7
:100A0800F8B507460E461546002406E02B46324642
:100A180039462046FFF7CCFF01345F2CF6DDF8BDE0
:100A2800154B1B781BB9144B00221A70704770B510
:100A380005460C46C522FE21FFF71EFF0122FD21B7
:100A48002846FFF719FF0D4E31462846FFF736FFB7
:100A5800C522FE212046FFF70FFF0122FD21204677
:100A6800FFF70AFF06F1C0012046FFF727FF024BF8
:100A780000221A7070BD00BFA4030020A803002044
:100A8800032805D8DFE800F00504020501207047B7
:100A98000320704708B5FFF79FFC08BD30B5ADB01F
:100AA800044600212791289129912A912B9194227B
:100AB80002A805F07BFD2268244B9A4201D02DB094
:100AC80030BD4FF4005302934FF080631F9303230C
:100AD8000393042304930C2305930723069302230B
:100AE800079308934FF48013099302A803F074FB4B
:100AF80048BB174CE36C43F00103E364E36C03F079
:100B080001030093009B4FF4C053279302232893BB
:100B1800002529952A950A232B9327A90D4803F028
:100B28000FFEE36D43F40013E365E36D03F4001374
:100B38000193019B2A462946492003F0B1FF492029
:100B480003F0BEFFBBE7FFF70BFCD2E700D4004081
:100B5800001002400000024208B500F52C71D0F8E0
:100B6800F00204F09EF808BD08B501EB810300EB24
:100B7800C303D3F87C21D0F8F00204F024F908BDAF
:100B880008B501EB810300EBC303DA6BD0F8F00280
:100B980004F07CF908BD08B5D0F8F00204F0FEF8BE
:100BA80008BD10B504468368022B09D10121D4F889
:100BB800F00204F0D4F8D4F8F00204F09EF810BD66
:100BC800FFF7CEFBF2E7000010B50446D0F8F002BC
:100BD80004F0C8F8A36923B1024A136943F0060375
:100BE800136110BD00ED00E010B50446836923B918
:100BF800D4F8F00204F0C5F810BD044A136923F0D4
:100C080006031361FFF746FFF2E700BF00ED00E0BF
:100C180038B50546184CC4F8F002C0F8C84203F0CD
:100C280081FE164B2360082363600223A3602361BF
:100C380000236361A361E3612362204600F0C6F9E3
:100C4800B8B9182300221146D5F8C80201F0E7F810
:100C5800582300228021D5F8C80201F0E0F84FF4AB
:100C6800807300228121D5F8C80201F0D8F800204D
:100C780038BDFFF775FBE4E75005002000D40040BD
:100C880008B5D0F8C80200F00FFAFFF7F9FE08BD62
:100C980008B594461A466346D0F8C80200F0A0FF8B
:100CA800FFF7EEFE08BD08B5D0F8C80200F0D6FF81
:100CB800FFF7E6FE08BD08B5D0F8C80201F03FF816
:100CC800FFF7DEFE08BD08B5D0F8C80201F06CF8E1
:100CD800FFF7D6FE08BDD0F8C83211F0800F08D152
:100CE80001F07F0101EB810103EBC10393F86A0175
:100CF800704701F07F01013101EB810103EBC10372
:100D08009878704708B5D0F8C80200F07CFEFFF765
:100D1800B7FE08BD08B5D0F8C80200F0EEFFFFF72F
:100D2800AFFE08BD08B5D0F8C80200F0C9FFFFF74C
:100D3800A7FE08BD004870473C050020704700002A
:100D480008B500220B490C4803F064FF48B90B4969
:100D5800094803F076FF38B9074803F08CFF30B92B
:100D680008BDFFF7FDFAF2E7FFF7FAFAF4E7FFF735
:100D7800F7FAF5E7B40100204408002068020020D3
:100D880012230B8000487047A001002004230B8029
:100D9800004870479C010020002393421ED200B5F2
:100DA80010E00CF1370C01F813C000014FEA430CB6
:100DB8000CF1010C4FF0000E01F80CE00133DBB22E
:100DC800934209D24FEA107CB0F1204FE9D20CF1DE
:100DD800300C01F813C0E8E75DF804FB7047000029
:100DE80038B50B4BD3F89005D3F89445D3F898351C
:100DF800C01800D138BD074D08222946FFF7CCFF9F
:100E0800042205F110012046FFF7C6FFF2E700BFF4
:100E18000000FA0B8201002008B51A230B80FFF7A7
:100E2800DFFF014808BD00BF8001002008B50A4661
:100E380028B90549054804F02EFC034808BD0249B5
:100E4800024804F028FCF8E7200B0020D46C0008C6
:100E580010B50A46034C2146034804F01CFC204602
:100E680010BD00BF200B0020EC6C000808B50A4636
:100E780028B90549054804F00EFC034808BD024995
:100E8800024804F008FCF8E7200B0020006D000879
:100E980008B50A4628B90549054804F0FCFB03488B
:100EA80008BD0249024804F0F6FBF8E7200B0020D1
:100EB8000C6D000838B512F4804F43D00468B4F8BC
:100EC800503091F800C04FEACC0E1EFA83F3234449
:100ED800B3F80244C4F309048B69A34228D31B1B4B
:100EE8008B618B697BB9056835F82C309BB223F48C
:100EF800804323F0700383F4005343F4004343F02A
:100F0800800325F82C3012F0400F0ED002680D78BF
:100F180032F825309BB223F4E04323F0700343F406
:100F2800004343F0C00322F8253024B9204638BDD9
:100F380000238B61D5E723460A894969006801F0D7
:100F480019FFF3E70468B4F8503091F800C04FEA8D
:100F5800CC0E1EFA83F32344B3F80644C4F3090401
:100F68008B69A3422FD31B1B8B618B697BB90568E7
:100F780035F82C309BB223F4804323F0700383F4BC
:100F8800005343F4004343F0800325F82C3012F05B
:100F9800400F0FD1026891F800C032F82C309BB294
:100FA80023F4E04323F0700343F4004343F0C00309
:100FB80022F82C30002CB9D023464A8949690068A8
:100FC80001F0D8FEB2E700238B61CEE7002869D094
:100FD80030B587B0044690F8A9323BB1032384F8B2
:100FE800A932206800F057FF00231BE080F8A832E0
:100FF800FFF754FDF2E75A1C02EB820104EBC10132
:101008000120487002EB820104F8313004EBC10082
:101018000021C17003EB830004EBC0008163C1634E
:101028000164D3B260688342E5D3002316E003EB82
:10103800830204EBC202002182F8691182F8683148
:1010480082F86B11C2F87811C2F87C1103EB8302A5
:1010580004EBC202C2F880110133DBB29842E6D831
:10106800A4465CF8105BEE46BCE80F00AEE80F0043
:10107800DCF80030CEF80030231D0ECB284600F0F7
:1010880014FF002384F82430012384F8A932E3698B
:10109800012B02D0002007B030BD204600F0DBFE57
:1010A8000020F8E70120704790F8A832012B0ED0F5
:1010B80010B50446012380F8A832006800F0E2FE6B
:1010C800206801F04FFA002084F8A80210BD022021
:1010D800704770B505460C46164612F0400F00F0F2
:1010E8000A810268B2F850300978C80010FA83F310
:1010F8001344B3F80224C2F30902A36993424DD9F9
:101108009B1AA361A369002B64D16378002B48D193
:101118002A68B2F8503012FA83F30344B3F8022471
:10112800C2F30902A3F80224B3F802246FEA424288
:101138006FEA524292B2A3F802242A686378002B1D
:101148003BD1B2F8503012FA83F3227803EBC20392
:10115800B3F80624C2F30902A3F80624B3F8062458
:101168006FEA42426FEA524292B2A3F8062421780B
:101178002846FFF705FD16F4804F40D02A682178ED
:1011880032F821309BB223F4E04323F0700343F498
:10119800404343F0800322F8213030E00023A3616C
:1011A800B0E7012BC9D12A68B2F8503012FA83F39C
:1011B80003440022A3F80224BFE7012BD7D1B2F8D9
:1011C800503012FA83F3227803EBC2030022A3F80B
:1011D8000624CCE716F4804F0DD0286830F821306B
:1011E8009BB223F4E04323F0700343F4404343F0FD
:1011F800800320F8213094F82430012B12D02A687B
:10120800217832F821309BB223F4E04323F04003E5
:1012180083F0300343F4004343F0800322F8213085
:10122800002070BD636913446361E3691344E3619B
:10123800216A2369994224D3C91A21626278002A53
:1012480044D12968B1F8502011FA82F2217802EBD2
:10125800C102B2F80214C1F30901A2F802143E2B2C
:101268001BD9580913F01F0F00D10138B2F8021426
:1012780089B2800280B2014341F40041A2F802140D
:1012880026E021B9002384F824301346D6E700234A
:1012980084F8243023620B46D0E74BB9B2F8021425
:1012A8006FEA41416FEA514189B2A2F802140FE096
:1012B800590813F0010F00D00131B2F8020480B2CE
:1012C800890289B20143A2F8021401E0012A06D07A
:1012D8009BB222896169286801F053F98FE7296870
:1012E800B1F8502011FA82F2217802EBC10299B2CA
:1012F800A2F80214ECE70268B2F850300978C80086
:1013080010FA83F31344B3F80624C2F30902A3695D
:1013180093424ED39B1AA361A369002B65D16378CE
:10132800002B49D12A68B2F8503012FA83F30344EB
:10133800B3F80224C2F30902A3F80224B3F8022482
:101348006FEA42426FEA524292B2A3F802242A6834
:101358006378002B3CD1B2F8503012FA83F322782C
:1013680003EBC203B3F80624C2F30902A3F8062468
:10137800B3F806246FEA42426FEA524292B2A3F8E7
:10138800062421782846FFF7FBFB16F4804F7FF4EC
:1013980036AF2A68217832F821309BB223F4E04333
:1013A80023F0700343F4404343F0800322F82130D4
:1013B80025E70023A361AFE7012BC8D12A68B2F85B
:1013C800503012FA83F303440022A3F80224BEE744
:1013D800012BD6D1B2F8503012FA83F3227803EBFE
:1013E800C2030022A3F80624CBE716F4804F0DD1E0
:1013F800286830F821309BB223F4E04323F07003CF
:1014080043F4404343F0800320F8213094F824301B
:10141800012B7FF4F4AE636913446361E3691344F9
:10142800E361216A2369994224D3C91A2162296890
:101438006278002A43D1B1F8502011FA82F221785B
:1014480002EBC102B2F80614C1F30901A2F80614AE
:101458003E2B1BD9580913F01F0F00D10138B2F8E1
:10146800061489B2800280B2014341F40041A2F817
:10147800061426E021B9002384F824301346D6E761
:101488000023236284F824300B46D0E74BB9B2F826
:1014980006146FEA41416FEA514189B2A2F8061475
:1014A8000FE0590813F0010F00D00131B2F806041B
:1014B80080B2890289B20143A2F8061401E0012A28
:1014C80006D09BB262896169286801F05AF896E6ED
:1014D800B1F8502011FA82F2217802EBC10299B2D8
:1014E800A2F80614EDE72DE9F04105462868B0F8A2
:1014F800443013F4004F00F08382B0F84440A3B2A4
:1015080014F00F0440F0DC8013F0100F69D003884A
:101518009AB213F4006F40F0998012F4004FE5D0AE
:10152800038823F070031B051B0D43F08003038021
:101538002868B0F8503095F86821D20012FA83F381
:101548000344B3F80634C3F30903C5F884318BB1F7
:10155800D5F87C1171B1B5F86E2101F00BFCD5F806
:101568007C31D5F884211344C5F87C310021284604
:10157800FFF7FAFA2A68138899B213F4006FB5D105
:1015880001F44051B1F5405FB0D0B2F8503012FAD2
:1015980083F3B3F80624C2F30902A3F80624D5F8A6
:1015A80078213E2A73D9510912F01F0F00D1013951
:1015B800B3F8062492B2890289B20A4342F400427F
:1015C800A3F806242A6813889BB223F4804323F0E7
:1015D800700383F4405343F4004343F080031380C3
:1015E80084E703889BB223F4E14323F070036FEA96
:1015F80043436FEA53439BB203802968B1F85030E4
:1016080095F82820D20012FA83F30B44B3F8023479
:10161800C3F309036B64EA6B1A44EA6300212846A2
:10162800FFF7AEFA95F82430002B3FF45FAF2B6C30
:10163800002B7FF45BAF95F824302A6843F08003D1
:10164800A2F84C30002385F824304FE7B0F850302A
:1016580095F86821D20012FA83F30344B3F80634EC
:10166800C3F30903C5F88431B5F86E2105F52C716B
:1016780001F080FB2A68138823F070031B051B0DFB
:1016880043F0800313802846FFF766FA2EE74AB92D
:10169800B3F806246FEA42426FEA524292B2A3F8C4
:1016A80006248FE7510812F0010F00D00131B3F87A
:1016B800062490B28A0292B20243A3F8062481E774
:1016C80030F824309EB213F4004F4AD116F0800F40
:1016D8003FF40CAF621C02EB820105EBC1012868E4
:1016E80030F824309BB223F4E14323F070036FEA0F
:1016F80043436FEA53439BB220F82430CB78012B45
:1017080000F0E98016F4807F40F075812868B0F811
:101718005030621C02EB820215F83260F20012FAB5
:1017280083F30344B3F80234C3F3090304EB8402DC
:1017380005EBC202126C9A4240F2458104EB840721
:1017480005EBC707D21A3A6404EB840205EBC20220
:10175800126C002A40F03E8131462846FFF710FA05
:10176800C4E630F8243023F070031B051B0D43F04A
:10177800800320F8243004EB8401C90001F5B4711A
:1017880005EB010804EB840305EBC30393F87431FC
:10179800002B40D12868B0F8503004EB840205EBE8
:1017A800C20292F86821D20012FA83F30344B3F814
:1017B8000674C7F3090717BB04EB840305EBC303DF
:1017C800D3F884213A44C3F88421D3F87C213A44DD
:1017D800C3F87C21D3F880313BB104EB840305EBDB
:1017E800C303D3F878319F4270D204EB840305EB2E
:1017F800C30393F868112846FFF7B6F966E704EBC8
:10180800840105EBC1013B46B1F86E21D1F87C118A
:1018180001F0B0FAD0E704EB840305EBC30393F8B7
:101828006B31022B33D0296804EB840205EBC2022A
:1018380092F8680131F820309BB223F4E04323F09A
:10184800700343F4004343F0C00321F820302868B4
:1018580092F8683130F8232012F4804F1ED0B0F887
:101868005020DB0013FA82F30344B3F80274C7F381
:101878000907002FA0D004EB840105EBC1013B460A
:10188800B1F87021D1F87C1101F074FA94E732466E
:1018980041462846FFF70EFB07468DE7B0F8502073
:1018A800DB0013FA82F30344B3F80674C7F309079D
:1018B800002F81D004EB840105EBC1013B46B1F850
:1018C8007221D1F87C1101F055FA75E74146286874
:1018D80000F069FEFAE604EB840305EBC30300227B
:1018E8001A6493F83430FBB116F0400F37D04B78B8
:1018F8001BBB2A68B2F8503012FA83F3621C02EB61
:10190800820215F8322003EBC203B3F80224C2F3B3
:101918000902A3F80224B3F802246FEA42426FEAEC
:10192800524292B2A3F80224013404EB840415F85D
:1019380034102846FFF724F9D8E5012BF4D12A689A
:10194800B2F8503012FA83F3621C02EB820215F8E7
:10195800322003EBC2030022A3F80224E4E72A683A
:10196800631C03EB830305EBC3035B78D3B9B2F8BD
:10197800503012FA83F3621C02EB820215F832200F
:1019880003EBC203B3F80624C2F30902A3F8062442
:10199800B3F806246FEA42426FEA524292B2A3F8C1
:1019A8000624C1E7012BBFD1B2F8503012FA83F3F5
:1019B800621C02EB820215F8322003EBC2030022FC
:1019C800A3F80624B0E704EB840205EBC202002763
:1019D8001764B9E604EB840205EBC202D66B1E4419
:1019E800D663526C04EB840405EBC40413446364AB
:1019F80000F0D9FD7AE532462846FFF76AFB75E51F
:101A08000020BDE8F08190F8A832012B0DD010B568
:101A18000446012380F8A83280F82410006800F0FA
:101A28009BFD002084F8A80210BD0220704710B565
:101A38000446006800F0A1FD10F4004F23D110F413
:101A4800806F24D110F4804F32D110F4005F39D167
:101A580010F4805F40D110F4006F67D110F0800F50
:101A680040F0818010F4007F40F0AD8010F4807F5A
:101A780027D02268B2F844309BB223F480739BB21B
:101A8800A2F844301DE02046FFF72DFD19E022683A
:101A9800B2F844309BB223F480639BB2A2F844307E
:101AA8002046FFF77EF800212046FFF7ACFF08E04C
:101AB8002268B2F844309BB223F480439BB2A2F868
:101AC800443010BD2268B2F844309BB223F400536E
:101AD8009BB2A2F84430F4E72268B2F840309BB2D7
:101AE80023F004039BB2A2F840302268B2F84030D9
:101AF8009BB223F008039BB2A2F8403094F8E0327E
:101B0800012B0CD02046FFF76FF82268B2F844305A
:101B18009BB223F480539BB2A2F84430D1E7002152
:101B280084F8E012204600F0ACF9EBE72268B2F83E
:101B380040309BB243F00803A2F840302268B2F864
:101B480044309BB223F400639BB2A2F8443022686D
:101B5800B2F840309BB243F00403A2F8403020466C
:101B6800FFF732F8ADE72268B2F844309BB223F0B1
:101B780080039BB2A2F8443094F8E032FBB92268A3
:101B8800B2F840309BB243F00403A2F84030226818
:101B9800B2F840309BB243F00803A2F8403001216C
:101BA80084F8E0122368B3F85430C3F38D0303F0CC
:101BB8003C03C4F8E432204600F063F981E720468C
:101BC800FFF702F87DE72268B2F844309BB223F4AD
:101BD80000739BB2A2F844302046FEF7DCFF70E7A2
:101BE80010B50446084611F0800F25D101F0070C06
:101BF8000CEB8C01C90001F5B47E04EB0E010CEB73
:101C08008C0C04EBCC0C4FF0000E8CF869E100F062
:101C1800070008700A61CB70022B1AD094F8A8321A
:101C2800012B19D0012384F8A832206800F04EF95E
:101C3800002084F8A80210BD01F0070C0CF1010C7B
:101C48000CEB8C0104EBC1014FF0010E81F801E0AF
:101C5800DDE700230B71E1E70220ECE710B504464D
:101C68000B4611F0800F1FD101F0070202EB820131
:101C7800C90001F5B471014402EB820200EBC20213
:101C8800002082F8690103F007030B7094F8A8326A
:101C9800012B13D0012384F8A832206800F0FBFA46
:101CA800002084F8A80210BD01F00702013202EBFF
:101CB800820100EBC10101204870E4E70220F2E74D
:101CC80010B501F0070C0CEB8C01C90001F5B471DB
:101CD8000CEB8C0E00EBCE0ECEF87C21CEF88031CA
:101CE8000024CEF884418EF869418EF868C1014419
:101CF800006800F058FC204610BD38B501F0070414
:101D080004F1010C0CEB8C0104EB840E00EBCE0EFD
:101D1800CEF83C20CEF8403001228EF84C20CEF888
:101D280048300025CEF8445000EBC1035A7000F843
:101D380031401946006800F036FC284638BD0B468D
:101D480001F0070241688A422AD810B5044613F008
:101D5800800F1DD103EB8301C90001F5B471014463
:101D680003EB830300EBC303002083F8690101231D
:101D78008B700A7094F8A832012B13D0012384F8D1
:101D8800A832206800F072FB002084F8A80210BD79
:101D9800531C03EB830100EBC10101204870E6E707
:101DA800012070470220F2E70B4601F00F0142685C
:101DB800914230D810B5044613F0800F21D103F0BA
:101DC800070202EB8201C90001F5B471014402EB7C
:101DD800820200EBC202002082F8690100228A70A8
:101DE80003F007030B7094F8A832012B15D00123D8
:101DF80084F8A832206800F05EFB002084F8A8026E
:101E080010BD03F00702013202EB820100EBC101B1
:101E180001204870E2E7012070470220F0E711F046
:101E2800800F0BD001F00701013101EB810100EBBC
:101E3800C10052B90273C3800020704701EB8101D1
:101E4800C90001F5B4710844F3E701220273038164
:101E58001B0C4381F0E7034602680121C0F8E81231
:101E6800002083F8E002B2F854309BB20B43A2F88A
:101E78005430B2F854309BB243F00203A2F8543005
:101E88007047704703460020A3F844004BF6807261
:101E9800A3F840207047B0F8403023F47E535B0429
:101EA8005B0CA0F840300020704784B0844601A83D
:101EB80080E80E000123ACF840300020ACF8400068
:101EC800ACF84400ACF8500004B0704710B50346B5
:101ED80091F800C030F82C2092B222F4EC4222F0A3
:101EE800700292B2C878032861D8DFE800F0555C28
:101EF8000258002048F2800E42EA0E0223F82C20F5
:101F080091F800C033F82C2092B222F4E04222F07B
:101F180070024CEA020242EA0E0223F82C200A7BE5
:101F2800002A40F0DC804A78002A51D0B3F85020CB
:101F380013FA82F20C7802EBC402B1F806C04FEA39
:101F48005C0C4FEA4C0CA2F800C40C7833F824203F
:101F580012F0400F0CD033F8242092B222F4E04261
:101F680022F0700242F4004242F0C00223F824201A
:101F7800CA78012A1DD0097833F8212092B222F4B8
:101F8800E04222F0400282F0200242F4004242F095
:101F9800800223F8212017E142F40072AAE742F4F4
:101FA800C0620020A6E742F480620020A2E7012078
:101FB800A0E7097833F8212092B222F4E04222F017
:101FC800400242F4004242F0800223F82120FBE064
:101FD800B3F8502013FA82F20C7802EBC402B1F87D
:101FE80006C04FEA5C0C4FEA4C0CA2F804C4B3F8E4
:101FF800502013FA82F20C7802EBC402B2F806C43D
:10200800CCF3090CA2F806C40C693E2C39D94FEA66
:10201800541E14F01F0F01D10EF1FF3EB2F806C492
:102028001FFA8CFC4FEA8E2E1FFA8EFE4CEA0E0C1D
:102038004CF4004CA2F806C40C7833F8242012F4AF
:10204800804F0CD033F8242092B222F4E04222F0E0
:10205800700242F4404242F0800223F824200978BA
:1020680069BB33F8212092B222F4804222F0700238
:1020780082F4405242F4004242F0800223F82120C8
:10208800A2E04CB9B2F806446FEA44446FEA5444FB
:10209800A4B2A2F80644CFE74FEA540C14F0010F9B
:1020A80001D00CF1010CB2F80644A4B24FEA8C2C12
:1020B8001FFA8CFC44EA0C04A2F80644BCE733F887
:1020C800212092B222F4804222F0700282F400525F
:1020D80042F4004242F0800223F8212074E0CA78DA
:1020E800022A72D00C7833F8242092B222F4E24209
:1020F80022F0700242F4004242F0800223F82420C9
:10210800B3F8502013FA82F291F800C002EBCC0227
:10211800B1F808C04FEA5C0C4FEA4C0CA2F800C4B6
:10212800B3F8502013FA82F291F800C002EBCC0207
:10213800B1F80AC04FEA5C0C4FEA4C0CA2F804C490
:102148004A78002A50D10C7833F8242012F4804FB2
:102158000CD033F8242092B222F4E04222F070022C
:1021680042F4404242F0800223F824200C7833F8ED
:10217800242012F0400F0CD033F8242092B222F41D
:10218800E04222F0700242F4004242F0C00223F81A
:10219800242091F800C033F82C2092B222F4804217
:1021A80022F0700282F4405248F28004224323F85D
:1021B8002C20097833F8212092B222F4E04222F050
:1021C8004002224323F8212010BD0C7833F8242044
:1021D80092B222F4E04222F0700242F4014242F04C
:1021E800800223F824208BE70C7833F8242012F49B
:1021F800804F0CD033F8242092B222F4E04222F02F
:10220800700242F4404242F0800223F824200C7805
:1022180033F8242012F0400F0CD033F8242092B267
:1022280022F4E04222F0700242F4004242F0C0027E
:1022380023F82420CA78012A1ED00C7833F82420E9
:1022480092B222F4E04222F0400282F0200242F4EC
:10225800004242F0800223F82420097833F8212034
:1022680092B222F4804222F0700242F4004242F01C
:10227800800223F82120A7E70C7833F8242092B2B3
:1022880022F4E04222F0400242F4004242F080028E
:1022980023F82420E1E70B7B002B46D14B7813B3BE
:1022A8000A7830F8223013F0400F0CD030F8223082
:1022B8009BB223F4E04323F0700343F4004343F05C
:1022C800C00320F822300A7830F822309BB223F479
:1022D800E04323F0400343F4004343F0800320F835
:1022E8002230002070470A7830F8223013F4804FEB
:1022F8000CD030F822309BB223F4E04323F0700373
:1023080043F4404343F0800320F822300A7830F841
:1023180022309BB223F4804323F0700343F400433C
:1023280043F0800320F82230DBE74B78002B4ED1B6
:102338000A7830F8223013F4804F0CD030F822306D
:102348009BB223F4E04323F0700343F4404343F08B
:10235800800320F822300A7830F8223013F0400F3A
:102368000CD030F822309BB223F4E04323F0700302
:1023780043F4004343F0C00320F822300A7830F8D1
:1023880022309BB223F4E04323F0700343F400436C
:1023980043F0C00320F822300A7830F822309BB28C
:1023A80023F4804323F0700348F2800C43EA0C03C3
:1023B80020F822300A7830F822309BB223F4E04328
:1023C80023F0400343EA0C0320F8223089E70A7817
:1023D80030F8223013F4804F0CD030F822309BB202
:1023E80023F4E04323F0700343F4404343F08003B5
:1023F80020F822300A7830F8223013F0400F0CD041
:1024080030F822309BB223F4E04323F0700343F406
:10241800004343F0C00320F822300A7830F8223015
:102428009BB223F4E04323F0700343F4404343F0AA
:10243800800320F822300A7830F822309BB223F447
:10244800E04323F0400348F2800C43EA0C0320F8F1
:1024580022300A7830F822309BB223F4804323F0EC
:10246800700343EA0C0320F822303AE74B788BB12B
:102478000A7830F822309BB223F4E04323F040037B
:1024880083F0100343F4004343F0800320F8223024
:10249800002070470A7830F822309BB223F480433A
:1024A80023F0700383F4805343F4004343F0800324
:1024B80020F82230ECE70B7B002B4BD14B7833B361
:1024C8000A7830F8223013F0400F0CD030F8223060
:1024D8009BB223F4E04323F0700343F4004343F03A
:1024E800C00320F82230CB78012B33D00A7830F89B
:1024F80022309BB223F4E04323F0400383F020030F
:1025080043F4004343F0800320F8223022E00A78A5
:1025180030F8223013F4804F0CD030F822309BB2C0
:1025280023F4E04323F0700343F4404343F0800373
:1025380020F822300A7830F822309BB223F4804306
:1025480023F0700383F4405343F4004343F08003C3
:1025580020F822300020704711B98023A0F84C30B1
:1025680000207047B0F858306FEA43436FEA53438E
:102578009BB2A0F8583000207047B0F8440080B2F1
:10258800704701335B08024402F5806208E008786E
:1025980091F801C040EA0C2022F8020B0231013BFD
:1025A800002BF4D1704770B505460C464A78012ACD
:1025B8003BD00B7B002B40F0A6828B690A699342C3
:1025C80040F284829B1A8B61B5F8503015FA83F378
:1025D800217803EBC103B3F80614C1F30901A3F88A
:1025E80006143E2A40F27682510912F01F0F00D1DC
:1025F8000139B3F8062492B2890289B20A4342F437
:102608000042A3F80624227835F822309BB223F43E
:10261800804323F0700383F4405343F4004343F0B2
:10262800800325F82230002070BD8E6909698E422A
:1026380000D90E46237B73B3E378022B4DD0236A6F
:102648009B1B2362237835F8231011F0400F00F00C
:10265800F581002A40F0E281B5F8502015FA82F29F
:1026680002EBC303B3F80624C2F30902A3F8062455
:102678003E2E40F2BA81710916F01F0F00D10139C0
:10268800B3F8062492B2890289B20A4342F400429E
:10269800A3F80624CBE1B6B23346E288616928463E
:1026A800FFF76FFFB5F8503015FA83F3227803EB84
:1026B800C203A3F80264227835F822309BB223F4CF
:1026C800E04323F0400383F0300343F4004343F036
:1026D800800325F822300020A6E7236A994280F07B
:1026E8006681227835F822309BB223F4E04323F048
:1026F800700343F4014343F0800325F82230236A32
:102708009B1B2362237835F8232012F0400F00F03A
:10271800A7806278B2BBB5F8502015FA82F202EBB6
:10272800C303B3F80624C2F30902A3F806243E2E15
:102738000FD9710916F01F0F00D10139B3F806241B
:1027480092B2890289B20A4342F40042A3F80624ED
:102758001AE04EB9B3F806246FEA42426FEA5242D1
:1027680092B2A3F806240FE0720816F0010F00D009
:102778000132B3F8061489B2920292B20A43A3F85E
:10278800062401E0012A30D0B3B262896169284683
:10279800FFF7F7FE636933446361236A2269934252
:1027A8002DD99B1B23626378002B45D1B5F8503097
:1027B80015FA83F3227803EBC203B3F80224C2F3B9
:1027C8000902A3F802243E2E1DD9710916F01F0F25
:1027D80000D10139B3F8022492B2890289B20A43BE
:1027E80042F40042A3F8022428E0B5F8502015FA74
:1027F80082F202EBC303B2B2A3F80624C4E70022B4
:1028080022621E46CFE74EB9B3F802246FEA42426D
:102818006FEA524292B2A3F802240FE0720816F04F
:10282800010F00D00132B3F8021489B2920292B2B9
:102838000A43A3F8022401E0012B06D0B3B222898F
:1028480061692846FFF79DFE35E7B5F8503015FA5F
:1028580083F3227803EBC203B2B2A3F80224EDE7B4
:102868006278B2BBB5F8502015FA82F202EBC303C6
:10287800B3F80224C2F30902A3F802243E2E0FD9AA
:10288800710916F01F0F00D10139B3F8022492B272
:10289800890289B20A4342F40042A3F802241AE0EA
:1028A8004EB9B3F802246FEA42426FEA524292B23A
:1028B800A3F802240FE0720816F0010F00D00132CD
:1028C800B3F8021489B2920292B20A43A3F802241E
:1028D80001E0012A30D0B3B2228961692846FFF7A6
:1028E80050FE636933446361236A226993422DD998
:1028F8009B1B23626378002B45D1B5F8503015FA3D
:1029080083F3227803EBC203B3F80624C2F3090267
:10291800A3F806243E2E1DD9710916F01F0F00D109
:102928000139B3F8062492B2890289B20A4342F403
:102938000042A3F8062428E0B5F8502015FA82F2E0
:1029480002EBC303B2B2A3F80224C4E70022226256
:102958001E46CFE74EB9B3F806246FEA42426FEA43
:10296800524292B2A3F806240FE0720816F0010F43
:1029780000D00132B3F8061489B2920292B20A4327
:10298800A3F8062401E0012B06D0B3B2628961697D
:102998002846FFF7F6FD8EE6B5F8503015FA83F3B2
:1029A800227803EBC203B2B2A3F80624EDE721783C
:1029B80035F8212092B222F4E24222F0700242F469
:1029C800004242F0800225F82120B5F8502015FA7F
:1029D80082F2217802EBC1029BB2A2F8023422896A
:1029E80061692846FFF7CDFD65E64EB9B3F80624C0
:1029F8006FEA42426FEA524292B2A3F8062416E006
:102A0800720816F0010F00D00132B3F8061489B22B
:102A1800920292B20A43A3F8062408E0B5F85020BF
:102A280015FA82F202EBC303B2B2A3F80624B3B2DA
:102A3800628961692846FFF7A4FD3CE6B2BBB5F898
:102A4800502015FA82F202EBC303B3F80224C2F352
:102A58000902A3F802243E2E0FD9710916F01F0FA0
:102A680000D10139B3F8022492B2890289B20A432B
:102A780042F40042A3F8022421E04EB9B3F802243C
:102A88006FEA42426FEA524292B2A3F8022416E079
:102A9800720816F0010F00D00132B3F8021489B29F
:102AA800920292B20A43A3F8022408E0B5F8502033
:102AB80015FA82F202EBC303B2B2A3F80224B3B24E
:102AC800228961692846FFF75CFDF4E500228A61E6
:102AD8001A4679E54AB9B3F806246FEA42426FEA22
:102AE800524292B2A3F806248DE5510812F0010F64
:102AF80000D00131B3F8062492B2890289B20A43A0
:102B0800A3F806247FE5CB78022B4DD0012B40F0AB
:102B18002F8189692369994240F2E680C91AA16127
:102B2800F2B9B5F8502015FA82F2217802EBC10209
:102B3800B2F80214C1F30901A2F802143E2B40F2C4
:102B4800D780580913F01F0F00D10138B2F80214CA
:102B580089B2800280B2014341F40041A2F8021414
:102B68006278002A40F0F680B5F8502015FA82F213
:102B7800217802EBC102B2F80614C1F30901A2F8E8
:102B880006143E2B40F2CD80590913F01F0F00D1D7
:102B98000139B2F806349BB2890289B20B4343F477
:102BA8000043A2F806342EE5F2B9B0F8503010FA16
:102BB80083F30A7803EBC203B3F80224C2F30902D1
:102BC800A3F802240A693E2A31D9510912F01F0FCD
:102BD80000D10139B3F8022492B2890289B20A43BA
:102BE80042F40042A3F802246378002B51D1B5F8CF
:102BF800503015FA83F3227803EBC203B3F80624A6
:102C0800C2F30902A3F8062422693E2A28D95109E9
:102C180012F01F0F00D10139B3F8062492B28902CD
:102C280089B20A4342F40042A3F8062433E04AB9C1
:102C3800B3F802246FEA42426FEA524292B2A3F812
:102C48000224D1E7510812F0010F00D00131B3F886
:102C5800022490B28A0292B20243A3F80224C3E784
:102C68004AB9B3F806246FEA42426FEA524292B276
:102C7800A3F806240FE0510812F0010F00D001312B
:102C8800B3F8062490B28A0292B20243A3F806244B
:102C980001E0012B1DD0E369002B3FF4B4AC22788E
:102CA80035F8221044F2400303EA01008B4302D0B6
:102CB80000287FF4A8AC35F822309BB223F4E04317
:102CC80023F0700343F4004343F0C00325F8223097
:102CD80099E4B5F8503015FA83F3227803EBC20370
:102CE800228AA3F80624D6E70023A3610B4617E738
:102CF8004BB9B2F802146FEA41416FEA514189B207
:102D0800A2F802142CE7590813F0010F00D0013182
:102D1800B2F8020480B2890289B20143A2F802140F
:102D28001EE74BB9B2F806346FEA43436FEA5343E0
:102D38009BB2A2F8063466E4590813F0010F00D0DC
:102D48000131B2F8063498B28B029BB20343A2F861
:102D5800063458E4012A7FF456ACB5F8502015FA29
:102D680082F2217802EBC1029BB2A2F806344AE44F
:102D7800012059E410B45C08024402F5806207E0BF
:102D880032F8020B0870C0F3072048700231013C8A
:102D9800002CF5D113F0010F01D013880B705DF8EA
:102DA800044B7047104B1B780BB90120704710B5C6
:102DB80004464FF47A70B0FBF3F30C4A1068B0FB8A
:102DC800F3F001F081FE68B9072C01D901200AE06F
:102DD800002221464FF0FF3001F062FE044B1C60D8
:102DE800002000E0012010BDD0010020D801002003
:102DF800D401002010B5042001F040FE01F09EFE31
:102E08000720FFF7CFFF10B10124204610BD04466C
:102E1800FDF74CFBF9E70000034B1B78034A1168E8
:102E28000B441360704700BFD0010020200D002024
:102E3800014B1868704700BF200D002038B50446C4
:102E4800FFF7F6FF0546B4F1FF3F02D0044B1B78AD
:102E58001C44FFF7EDFF401BA042FAD338BD00BF6A
:102E6800D001002003689A6912F0020F01D00022F5
:102E78009A6203689A6912F0010F03D19A6942F0C5
:102E880001029A61704710B4019CC1F3090141EA3B
:102E980002411943214321F0004102685368640D3F
:102EA80004F4806444F07F7444F4583444F47F7428
:102EB80044F0030423EA04030B4353605DF8044B16
:102EC80070472DE9F041044603689E6916F0100624
:102ED8007CD00D4690461022DA61002637462368DA
:102EE800986910F0200F30D17FBBB5F1FF3FF6D0C5
:102EF800FFF79EFFA0EB0800A84201D8002DEED1F5
:102F080021684B6803F4804394F84220D2B2886960
:102F180010F4004F02D00BB9202A0ED123689B6908
:102F280013F0200FDBD1FFF783FFA0EB080019286F
:102F3800F4D946F020060127D1E74B6843F48043D3
:102F48004B60FFF775FF8046E8E70FB92022DA618A
:102F580046F0040601252268936913F4807F05D0A2
:102F680046F001064FF48071D161012513F4806F9A
:102F780006D046F0080622684FF48061D161012529
:102F880013F4007F24D046F0020623684FF4007241
:102F9800DA6101252046FFF765FF2268536823F0B0
:102FA800FF7323F48B3323F4FF7323F0010353607F
:102FB800636C33436364202384F84130002384F82E
:102FC800423084F840302846BDE8F0810025C2E749
:102FD800002DF8D0DEE770B504460D461646236886
:102FE8009B6913F0020F22D1324629462046FFF78B
:102FF80068FFF0B9B5F1FF3FF1D0FFF719FF801B6B
:10300800A84201D8002DEAD123689B6913F0020F6A
:10301800E5D1636C43F020036364202384F84130D6
:10302800002384F8423084F84030012000E000207A
:1030380070BD0120FCE72DE9F04105460F46164614
:1030480098462C68A46937EA04040CBF01240024BC
:10305800B44222D1B8F1FF3FF3D0FFF7E9FE069B57
:10306800C01A404502D8B8F1000FEAD12B689B6915
:1030780037EA03030CBF01230023B342E1D16B6C91
:1030880043F020036B64202385F84130002385F842
:10309800423085F84030012000E00020BDE8F08192
:1030A80070B504460D46164604E023689B6913F084
:1030B800200F12D023689B6913F0200F1BD13246D2
:1030C80029462046FFF7FDFEB8B9FFF7B1FE801B81
:1030D800A842EAD8002DEDD1E7E7636C43F020035E
:1030E8006364202384F84130002384F8423084F854
:1030F8004030012000E0002070BD0120FCE70028DE
:1031080059D010B5044690F84130002B43D0242301
:1031180084F841302268136823F001031360636860
:10312800226823F0706313612268936823F40043D4
:103138009360E368012B33D0A368226843F4044307
:103148009360E368022B31D02268536843F0007320
:1031580043F4004353602268D36823F40043D360E8
:10316800236962691343A169226843EA0123D36092
:10317800E369216A22680B4313602268136843F0ED
:103188000103136000206064202384F84130206329
:1031980084F8420010BD80F84030FDF7A3F9B6E787
:1031A800A368226843F400439360CAE723684FF496
:1031B80000625A60C8E70120704700002DE9F04717
:1031C80082B00F460A9E90F84110C9B2202940F0FB
:1031D800A38004469046994690F84030012B00F0B1
:1031E8009F804FF0010A80F840A0FFF721FE0546B6
:1031F8000090192352464FF400412046FFF71BFF69
:10320800002840F08F80212384F84130102384F86F
:10321800423000236364C4F82480A4F82A906363CE
:10322800638D9BB2FF2B0AD9FF222285414B009365
:103238004FF0807339462046FFF725FE18E0628D6F
:1032480092B222853B4B00934FF00073D2B23946BD
:103258002046FFF718FE0BE0628D92B2228500230C
:1032680000934FF00073D2B239462046FFF70BFEA9
:10327800638D9BB2002B33D02A4631462046FFF798
:10328800AAFE002850D1626A236812789A62636A9B
:1032980001336362638D9BB2013B9BB26385238DCF
:1032A800013B9BB22385628D92B2002AE0D0002BAD
:1032B800DED100953346002280212046FFF7BBFE71
:1032C800A0BB638D9BB2FF2BC6D9FF2222850023AA
:1032D80000934FF0807339462046FFF7D4FDC7E7C7
:1032E8002A4631462046FFF7DBFE08BB236820222A
:1032F800DA6121684B6823F0FF7323F48B3323F4DE
:10330800FF7323F001034B6084F84120002384F805
:10331800423084F8403000E0022002B0BDE8F08777
:103328000220FAE70120F8E70120F6E70120F4E798
:103338000120F2E700200080034690F84120D2B235
:10334800202A23D190F84020012A21D0012280F898
:103358004020242280F841200068026822F00102FF
:1033680002601868026822F48052026018680268D5
:103378001143016019680A6842F001020A602022BC
:1033880083F84120002083F84000704702207047EE
:1033980002207047034690F84120D2B2202A21D15A
:1033A80090F84020012A1FD0012280F840202422D2
:1033B80080F841200068026822F001020260186863
:1033C800026822F4706242EA0122026019680A68FF
:1033D80042F001020A60202283F84120002083F88D
:1033E8004000704702207047022070471F4AD36888
:1033F80003F00303D268C2F303120132022B0DD08B
:10340800032B15D0012B1DD00020184BDB68C3F30C
:10341800416301335B00B0FBF3F070471448B0FB25
:10342800F2F0124BDB68C3F3062303FB00F0ECE772
:103438001048B0FBF2F00D4BDB68C3F3062303FB27
:1034480000F0E2E7094B1B6813F0080F08D1074B9F
:10345800D3F89430C3F30323074A52F82300D4E780
:10346800024B1B68C3F30313F6E700BF00100240CA
:103478000024F4000048E8011C6D000830B583B052
:103488000446214B9B6D13F0805F0CD001F042FA8B
:10349800D0B1B0F5007F17D0802C2CD82DD0702C4F
:1034A8002DD0002117E0184DAB6D43F08053AB656C
:1034B800AB6D03F080530193019B01F02BFAAB6DC8
:1034C80023F08053AB65E3E7802C03D9A02C10D9F7
:1034D800022100E000210D4A136823F00F030B437B
:1034E8001360136803F00F038B420AD1002003B066
:1034F80030BD0121EFE70321EDE70221EBE70121D0
:10350800E9E70120F3E700BF001002400020024075
:10351800314A9368D26802F0030213F00C030AD010
:103528000C2B06D0042B1FD0082B20D000200146DE
:1035380010E0012AF6D1284A126812F0080F0CD1BF
:10354800254AD2F89420C2F30322244951F82210C4
:1035580043B100200C2B0DD070471F4A1268C2F3EC
:103568000312F2E70846F5E71D480021F2E71D4877
:103578000021EFE7184BDA6802F00302DB68C3F3B7
:1035880003130133022A0AD0032A1AD0B1FBF3F13C
:10359800114BD868C0F3062001FB00F008E0104882
:1035A800B0FBF3F00C4BDB68C3F3062303FB00F01E
:1035B800094BDB68C3F3416301335B00B0FBF3F0F5
:1035C800CAE70848B0FBF3F0034BDB68C3F30623F4
:1035D80003FB00F0ECE700BF001002401C6D000880
:1035E8000024F4000048E80108B5FFF791FF044BF8
:1035F8009B68C3F30313034AD35CD84008BD00BFDC
:10360800001002405C6D0008002800F0B683F0B599
:1036180083B004469E4B9D6805F00C05DE6806F0F5
:103628000306036813F0100F56D00DB30C2D1DD0F0
:10363800E369002B00F0BC80954A136843F001034E
:103648001360FFF7F5FB0746914B1B6813F0020F59
:1036580040F09B80FFF7ECFBC01B0228F4D98C4B91
:103668001B6813F0020FEFD1032091E3012EDFD185
:10367800874B1B6813F0020F03D0E369002B00F09F
:103688007E83606A824B1B6813F0080F57D0804B0B
:103698001B6803F0F003984258D87D4B1A6842F033
:1036A80008021A601A6822F0F002616A0A431A6076
:1036B8005A6822F47F42216A42EA01225A60002DA8
:1036C8005CD0FFF791FF734B1860734B1868FFF7D6
:1036D80069FB002840F05C83236813F0010F00F0B9
:1036E8008B80082D7FD00C2D7BD06368B3F5803F8D
:1036F80000F0A780B3F5A02F00F0A980644B1A68EA
:1037080022F480321A601A6822F480221A606368F0
:10371800002B00F0A980FFF78BFB07465C4B1B686A
:1037280013F4003F68D1FFF783FBC01B6428F5D969
:10373800574B1B6813F4003FF0D1032028E3544B88
:10374800D3F894301B0903F0F003A4E7FFF796FEC3
:10375800002840F016834E4B1A6842F008021A609F
:103768001A6822F0F002616A0A431A605A6822F461
:103778007F42216A42EA01225A60A2E7606AFFF7A3
:103788007DFE00289DD0012002E3414B1A6842F0DB
:1037980008021A601A6822F0F002616A0A431A6085
:1037A8005A6822F47F42216A42EA01225A6093E76A
:1037B800374A136823F001031360FFF739FB074604
:1037C800334B1B6813F0020F86D0FFF731FBC01B89
:1037D8000228F5D92E4B1B6813F0020FF0D00320F6
:1037E800D6E2032E81D12A4B1B6813F4003F03D085
:1037F8006368002B00F0C782236813F0020F60D0C3
:10380800042D4DD00C2D49D0E368002B00F090809A
:103818001F4A136843F480731360FFF709FB0546DA
:103828001B4B1B6813F4806F79D1FFF701FB401B1A
:103838000228F5D9164B1B6813F4806FF0D10320CA
:10384800A6E2134A136843F4803313605FE703F179
:103858008043A3F53C331A6842F480221A601A6840
:1038680042F480321A6052E7FFF7E2FA0746084B43
:103878001B6813F4003FBFD0FFF7DAFAC01B6428B7
:10388800F5D9034B1B6813F4003FF0D003207FE207
:1038980000100240D8010020D4010020022EB3D12C
:1038A800A94B1B6813F4806F03D0E368002B00F06A
:1038B8006C82A54A536823F0FE43216943EA0163F9
:1038C8005360236813F0080F70D06369002B50D041
:1038D800A369002B45D19C4AD2F8943023F01003F9
:1038E800C2F89430984AD2F8943043F00103C2F8F1
:1038F8009430FFF79DFA0546934BD3F8943013F0B4
:10390800020F53D1FFF794FA401B0728F4D98E4BC6
:10391800D3F8943013F0020FEED1032038E28A4A2C
:10392800536823F0FE43216943EA01635360C8E703
:10393800854A136823F480731360FFF779FA054604
:10394800814B1B6813F4806FBBD0FFF771FA401BE3
:103958000228F5D97C4B1B6813F4806FF0D0032044
:1039680016E2794AD2F8943043F01003C2F8943042
:10397800B8E7754AD2F8943023F00103C2F89430BE
:10398800FFF756FA0546704BD3F8943013F0020F40
:103998000CD0FFF74DFA401B0728F4D96A4BD3F82F
:1039A800943013F0020FEED00320F1E1236813F0F6
:1039B800040F00F0F080644B9B6D13F0805F24D1FE
:1039C800614B9A6D42F080529A659B6D03F080536B
:1039D8000193019B01255D4B1B6813F4807F16D072
:1039E800A36813F0010F33D013F0040F28D0564BFF
:1039F800D3F8902042F00402C3F89020D3F8902026
:103A080042F00102C3F890202FE00025E3E74F4A77
:103A1800136843F480731360FFF70AFA06464B4BAA
:103A28001B6813F4807FDBD1FFF702FA801B0228A2
:103A3800F5D9464B1B6813F4807FF0D10320A7E12A
:103A4800414AD2F8903043F00103C2F890300CE0BC
:103A58003D4BD3F8902022F00102C3F89020D3F810
:103A6800902022F00402C3F89020A368002B53D0C2
:103A7800FFF7DEF90646344BD3F8903013F0020F07
:103A88000ED1FFF7D5F9801B41F288339842F2D95D
:103A98002D4BD3F8903013F0020FECD1032077E1CF
:103AA800A36813F0800F1BD0274AD2F8903043F058
:103AB8008003C2F89030244BD3F8903013F4006F91
:103AC80068D1FFF7B5F9801B41F288339842F2D9E3
:103AD8001D4BD3F8903013F4006FECD1032057E15D
:103AE800194AD2F8903023F08003C2F89030164B70
:103AF800D3F8903013F4006F4CD0FFF799F9801B7E
:103B080041F288339842F2D90F4BD3F8903013F42E
:103B1800006FECD003203BE1FFF78AF906460A4B19
:103B2800D3F8903013F0020F12D0FFF781F9801B01
:103B380041F288339842F2D9034BD3F8903013F00E
:103B4800020FECD0032023E1001002400070004077
:103B5800974BD3F8903013F0800F1BD0944AD2F8CB
:103B6800903023F08003C2F89030914BD3F8903016
:103B780013F4006F0ED0FFF75BF9801B41F2883316
:103B88009842F2D98A4BD3F8903013F4006FECD0F6
:103B98000320FDE015BB236813F0200F41D0A36A72
:103BA80013B3834AD2F8983043F00103C2F898302F
:103BB800FFF73EF905467E4BD3F8983013F0020F15
:103BC8002FD1FFF735F9401B0228F4D9784BD3F8E9
:103BD800983013F0020FEED10320D9E0744A936DA8
:103BE80023F080539365D6E7714AD2F8983023F0D2
:103BF8000103C2F89830FFF71BF905466C4BD3F860
:103C0800983013F0020F0CD0FFF712F9401B02286E
:103C1800F4D9674BD3F8983013F0020FEED0032095
:103C2800B6E0E36A002B00F0B280614A926802F0C5
:103C38000C020C2A73D0022B18D05D4A136823F0AB
:103C480080731360FFF7F4F80446594B1B6813F0B0
:103C5800007F5DD0FFF7ECF8001B0228F5D9544B24
:103C68001B6813F0007FF0D0032091E0504A1368DE
:103C780023F080731360FFF7DBF805464C4B1B6895
:103C880013F0007F0BD0FFF7D3F8401B0228F5D9BB
:103C9800474B1B6813F0007FF0D0032078E0444ABC
:103CA800D36844491940236B606B013843EA001319
:103CB800A06B43EA0023206C4008013843EA4053D4
:103CC800606C4008013843EA4063E06B43EAC06334
:103CD8001943D160136843F080731360D36843F0CD
:103CE8008073D360FFF7A4F80446314B1B6813F0C8
:103CF800007F0BD1FFF79CF8001B0228F5D92C4B4D
:103D08001B6813F0007FF0D1032041E000203FE062
:103D1800274AD168284B0B40D360002038E0012B9C
:103D280038D0234BDB6803F00301226B914233D177
:103D380003F0F002616B0139B2EB011F2ED103F4DD
:103D4800FE42A16BB2EB012F2AD103F07842E16B5E
:103D5800B2EBC16F26D103F4C001226C5208013ABC
:103D6800B1EB425F20D103F0C063626C5208013AA4
:103D7800B3EB426F1AD100200AE0012070470120FE
:103D880006E0012004E0012002E0012000E000201C
:103D980003B0F0BD0120FBE70120F9E70120F7E7B8
:103DA8000120F5E70120F3E70120F1E70120EFE723
:103DB800001002400C809F01FCFFEEFE002800F07E
:103DC800E980F8B50D460446764B1B6803F00F03EF
:103DD8008B420BD2734A136823F00F030B43136013
:103DE800136803F00F038B4240F0D680236813F06A
:103DF800020F0CD0A2686C4B9B6803F0F0039A4248
:103E080005D969498B6823F0F0031A438A6023684F
:103E180013F0010F76D06368032B0DD0022B25D049
:103E2800002B3CD103F1804303F504331B6813F0E6
:103E3800020F21D10120A6E05B4B1B6813F0007F25
:103E480001D101209FE0FFF7D1FA584B98422DD9B4
:103E5800554B9B6813F0F00F2AD1534A936823F00F
:103E6800F00343F080039360802724E04E4B1B68E7
:103E780013F4003F00F09280FFF74AFB4B4B984247
:103E880018D9494B9B6813F0F00F37D1464A93680D
:103E980023F0F00343F08003936080270BE0424B4C
:103EA8001B6813F4806FE7D101206CE0002702E063
:103EB800002700E000273C4A936823F00303616869
:103EC8000B439360FEF7B4FF0646374B9B6803F03D
:103ED8000C036268B3EB820F12D0FEF7A9FF801BB8
:103EE80041F288339842F0D92F4B9B6803F00C03BA
:103EF8006268B3EB820FE8D0032044E00027DAE7DA
:103F0800002F41D1236813F0020F0CD0A268264B72
:103F18009B6803F0F0039A4205D223498B6823F08B
:103F2800F0031A438A601F4B1B6803F00F03AB4270
:103F38000AD91C4A136823F00F032B431360136834
:103F480003F00F03AB422BD1236813F0040F06D004
:103F5800154A936823F4E063E1680B439360236890
:103F680013F0080F07D0104A936823F460532169AF
:103F780043EAC1039360FFF737FB0D4B18600D4B05
:103F88001868FEF70FFFF8BD074A936823F0F0039F
:103F98009360B7E7012070470120F4E70120F2E7BA
:103FA8000120F0E7002002400010024000B4C404E1
:103FB800D8010020D401002070B504460E460368DD
:103FC800022B51D0032B56D0012B01D0012070BDFC
:103FD8002F4B1B6813F0020F54D02D4A136823F09F
:103FE80080531360FEF724FF0546294B1B6813F026
:103FF800005F09D0FEF71CFF431B022BF5D9244BA9
:104008001B6813F0005F3FD186B921484369214AF4
:104018001A40A168E368DB0643EA012361680139B5
:1040280043EA011321680B431A434261184A136893
:1040380043F080531360FEF7FBFE0546144B1B68E4
:1040480013F0005F09D1FEF7F3FE431B022BF5D9ED
:104058000F4B1B6813F0005F18D00D4A5369216994
:104068000B4353610020B2E7094B1B6813F4806FC0
:10407800B3D10120ABE7064B1B6813F4C02FACD1BA
:104088000120A4E70120A2E70320A0E703209EE780
:10409800001002400C80FF0770B504460E46036806
:1040A800022B52D0032B57D0012B01D0012070BD19
:1040B800454B1B6813F0020F7FD0434A136823F067
:1040C80080631360FEF7B4FE05463F4B1B6813F090
:1040D800006F09D0FEF7ACFE431B022BF5D93A4B13
:1040E8001B6813F0006F6AD1002E3CD13648036973
:1040F800364A1A40A168E368DB0643EA012361688F
:10410800013943EA011321680B431A4302612E4A1D
:10411800136843F080631360FEF78AFE05462A4B56
:104128001B6813F0006F09D1FEF782FE431B022BB8
:10413800F5D9254B1B6813F0006F42D0224A13694A
:10414800A1690B4313610020B1E71F4B1B6813F4EF
:10415800806FB2D10120AAE71B4B1B6813F4C02F54
:10416800ABD10120A3E7012E13D017480369184AE1
:104178001A40A16863695B08013B5B0643EA0123B7
:104188006168013943EA011321680B431A4302614C
:10419800BDE70D4803690F4A1A40A16823695B0807
:1041A800013B5B0543EA01236168013943EA0113D6
:1041B80021680B431A430261A9E7012077E703202E
:1041C80075E7032073E700BF001002400C80FF076B
:1041D8000C80FFF90C809FFF2DE9F04182B0044666
:1041E800036813F4006F34D0C36E402B1FD00BD874
:1041F80023B3202B05D100212030FFF7DDFE064632
:1042080021E001273E4626E0602B20D0802B0BD1F1
:104218000026694AD2F89C3023F0E003E16E0B4394
:10422800C2F89C30002716E001273E4613E0624A98
:10423800D36843F48033D3600026EAE700210430D2
:10424800FFF72AFF0646002EE3D0374603E0002694
:10425800DFE700273E46236813F4805F33D0236FDF
:10426800B3F5007F22D00DD833B3B3F5807F06D1E4
:10427800002104F12000FFF79FFE064608E0012711
:104288003E4620E0B3F5407F02D0B3F5806F0AD1F7
:10429800C6B9494AD2F89C3023F4E063216F0B4336
:1042A800C2F89C300FE001273E460CE0424AD36832
:1042B80043F48033D360EBE70021201DFFF7ECFEC9
:1042C8000646E5E73746236813F4003F7DD03A4BAE
:1042D8009B6D13F0805F4FD1374B9A6D42F080523F
:1042E8009A659B6D03F080530193019B4FF0010881
:1042F800324A136843F480731360FEF799FD05464C
:104308002E4B1B6813F4807F09D1FEF791FD401BEB
:104318000228F5D9294B1B6813F4807F48D0002E5A
:104328004ED1254BD3F8903013F4407316D0D4F8FF
:1043380090209A4212D0204AD2F8903023F4407349
:10434800D2F8901041F48031C2F89010D2F8901051
:1043580021F48031C2F89010C2F8903013F0010FA8
:104368000DD1154AD2F8903023F44073D4F8901048
:104378000B43C2F8903024E04FF00008B8E7FEF78E
:1043880057FD05460C4BD3F8903013F0020FE8D1D7
:10439800FEF74EFD401B41F288339842F2D9064B96
:1043A800D3F8903013F0020FDBD103273E4608E024
:1043B80003273E4605E000BF0010024000700040A1
:1043C8003746B8F1000F40F05181236813F0010F10
:1043D80008D0B84AD2F8883023F00303616B0B4346
:1043E800C2F88830236813F0020F08D0B14AD2F817
:1043F800883023F00C03A16B0B43C2F88830236884
:1044080013F0040F08D0AB4AD2F8883023F03003F9
:10441800E16B0B43C2F88830236813F0080F08D00B
:10442800A44AD2F8883023F0C003216C0B43C2F8A9
:104438008830236813F0100F08D09E4AD2F88830CD
:1044480023F44073616C0B43C2F88830236813F07F
:10445800200F08D0974AD2F8883023F44063A16C23
:104468000B43C2F88830236813F4007F08D0914AC0
:10447800D2F8883023F44023E16D0B43C2F888302A
:10448800236813F4806F08D08A4AD2F8883023F45E
:104498004013216E0B43C2F88830236813F4800F51
:1044A80008D0844AD2F8883023F44003616E0B4365
:1044B800C2F88830236813F0007F0CD0A36EB3F1E4
:1044C800807F00F0D980B3F1007F00F0E580002BF9
:1044D80000F0D7800127236813F0400F08D0754AF1
:1044E800D2F8883023F44053E16C0B43C2F888308B
:1044F800236813F0800F08D06E4AD2F8883023F46E
:104508004043216D0B43C2F88830236813F4807F41
:1045180008D0684AD2F8883023F44033616D0B43E1
:10452800C2F88830236813F4801F08D0614AD2F893
:104538009C3023F00303A16D0B43C2F89C30236821
:1045480013F4005F11D05B4AD2F8883023F040633F
:10455800616F0B43C2F88830636FB3F1006F00F0EE
:10456800A380B3F1806F00F0A780236813F4002FB5
:104578001FD0A36FB3F5804F00F0A7804D4AD2F843
:10458800881021F040610B43C2F88830D2F89C3083
:1045980023F48043C2F89C30A36FB3F1806F00F01E
:1045A8009C80B3F1006F00F0A180B3F5804F00F05C
:1045B800A380236813F4802F11D03E4AD2F88830A4
:1045C80023F04063E16F0B43C2F88830E36FB3F127
:1045D800006F00F09780B3F1806F00F09880236837
:1045E80013F4804F0FD0334AD2F8883023F0405369
:1045F800D4F880100B43C2F88830D4F88030B3F177
:10460800805F00F08D80236813F4803F09D0294A29
:10461800D2F89C3023F00403D4F884100B43C2F87A
:104628009C30236813F4001F09D0224AD2F89C302A
:1046380023F01803D4F888100B43C2F89C30236881
:1046480013F0807F0ED01B4AD2F89C3023F440131D
:10465800D4F88C100B43C2F89C30D4F88C30B3F5E6
:10466800001F66D0384602B0BDE8F081114A936D4C
:1046780023F080539365A8E60E4AD36843F4801369
:10468800D3607EB90B4AD2F8883023F04073A16E0C
:104698000B43C2F888301EE70021201DFFF7FCFC01
:1046A8000646EEE7374616E7D36843F48013D3602F
:1046B8005BE700BF001002400121201DFFF7ECFC62
:1046C80000283FF452AF07464FE71C4AD2F89C3007
:1046D80043F48043C2F89C305EE70121201DFFF7B8
:1046E800DBFC00283FF465AF074662E7134AD3684E
:1046F80043F48013D3605CE7104AD36843F48033F3
:10470800D36056E7D36843F48013D36067E7012189
:10471800201DFFF7C1FC00283FF461AF07465EE7A4
:104728000221201DFFF7B8FC00283FF46CAF0746B4
:1047380069E7D36843F48013D36093E7001002401D
:10474800F0B5002365E085685E000324B44025EADF
:104758000405CC68B4402C438460456825EA0C0500
:104768004C68C4F300149C402C43446062E0DD08AC
:10477800083550F8254003F0070C4FEA8C0C4FF031
:104788000F0E0EFA0CFE24EA0E0E0C6904FA0CF455
:1047980044EA0E0440F8254063E0062400E00024C3
:1047A80004FA0EF42C43564D0CF1180C45F82C4025
:1047B8002D68D44325EA02064F6817F4801F01D0FC
:1047C80042EA05064E4D2E606D6804EA05064F68FC
:1047D80017F4001F01D042EA0506494D6E60D5F86E
:1047E800845004EA05064F6817F4003F01D042EAF6
:1047F8000506434DC5F88460D5F880502C404E68B6
:1048080016F4803F01D042EA05043D4AC2F88040D0
:1048180001330A6832FA03F471D04FF0010C0CFA34
:1048280003FC1CEA0202F3D04C6804F00304013CC8
:10483800012C88D94C6804F00304032C0CD0C468FC
:104848005D004FF0030C0CFA05FC24EA0C0C8C6894
:10485800AC4044EA0C04C4604C6804F00304022C25
:1048680085D004684FEA430E4FF0030C0CFA0EFC97
:1048780024EA0C0C4C6804F0030404FA0EF444EA2D
:104888000C0404604C6814F4403FC1D04FEA930C08
:104898000CF118051A4C54F8255003F0030E4FEA92
:1048A800CE0E0F2404FA0EF425EA0405154CA04296
:1048B8003FF475AF04F58064A04216D004F5806417
:1048C800A04214D004F58064A04212D004F580649C
:1048D800A04210D004F58064A0420ED004F5806494
:1048E800A0423FF45AAF07245AE7012458E70224AC
:1048F80056E7032454E7042452E7052450E7F0BDA3
:1049080000F40240000002420AB1816170478162EE
:1049180070470000024B186800F4C060704700BF81
:1049280000700040024A536843F480635360704744
:1049380000700040024A936843F4804393607047D4
:1049480000700040074B1B6913F4805006D113F424
:10495800004F00D070474FF4004070474FF480502C
:10496800F8E700BF0070004038B505461E4B1C68CC
:10497800FFF7E8FFB0F5004F2DD004F4C0641A4BE0
:10498800DB6813F4004F28D1AC4228D0164A1368CC
:1049980023F4C0632B431360144B1B685B09144A50
:1049A800A2FB0323DB09322202FB03F3114AA2FB19
:1049B8000323DB08013300E0013B0B4A526912F480
:1049C800806F01D0002BF7D1074B5B6913F4806F20
:1049D80007D1002038BD0120FCE70120FAE70020BC
:1049E800F8E70320F6E700BF00700040D801002078
:1049F800C55A7C0ACDCCCCCC002807DB00F01F02BE
:104A0800400901239340024A42F82030704700BF12
:104A180000E100E0002808DB4901C9B200F160406C
:104A280000F5614080F80013704700F00F0049015D
:104A3800C9B2014B1954704714ED00E000B500F0FD
:104A48000700C0F1070CBCF1030F28BF4FF0030C9F
:104A5800C31C062B0FD9031F4FF0FF3E0EFA0CF0B4
:104A680021EA000199400EFA03FE22EA0E0241EA09
:104A780002005DF804FB0023EEE70000074AD36854
:104A880023F4E0631B041B0C000200F4E060034302
:104A980043F0BF6343F40033D360704700ED00E098
:104AA80010B50446054BD868C0F30220FFF7C6FFCF
:104AB80001462046FFF7AEFF10BD00BF00ED00E045
:104AC80008B5FFF799FF08BD0138B0F1807F0BD218
:104AD8004FF0E0235861054AE02182F823100020B6
:104AE800986107221A6170470120704700ED00E0C5
:104AF800074B1B6813F0010F07D1054A136823F011
:104B0800040303431360002070470120704700BF6F
:104B180000040340034A136843F0010313600020B4
:104B2800704700BF00040340034AD2F8883043F4BA
:104B38007003C2F88830704700ED00E02F4B1B6807
:104B480013F0080F16D12D4BD3F89430C3F3032379
:104B58002B4A52F82320294B9B6803F00C030C2B9B
:104B680048D8DFE803F00C4747470F474747134744
:104B780047471700214B1B68C3F30313E8E7214B92
:104B88001A6028E01F4B204A1A6024E01D4B1F4A78
:104B98001A6020E0194BD96801F00301DB68C3F300
:104BA80003130133022904D003291FD0B2FBF3F207
:104BB80002E0154AB2FBF3F21049CB68C3F30623AF
:104BC80002FB03F3CA68C2F3416201325200B3FB2D
:104BD800F2F30C4A1360094B9B68C3F303130C4AA6
:104BE800D15C084A1368CB4013607047074AB2FB90
:104BF800F3F2E1E7034B1A60EDE700BF0010024053
:104C08001C6D0008D80100200024F4000048E801C9
:104C18005C6D000898B108B503460020C3F8B802D7
:104C2800C3F8C402C3F8D00209B1C3F8B412012111
:104C380083F89C121A701846FBF7EAFF08BD032098
:104C4800704710B582B00023ADF8063089B104462C
:104C5800C0F8B812CB6A23B10DF106009847C4F822
:104C6800D002D4F8D8320133C4F8D832002002B0C8
:104C780010BD0320FBE708B5FCF702F808BD08B52E
:104C8800D0F8B83213B11B68984708BD0020FCE77C
:104C980008B5D0F8B8325B68984700B908BD03205A
:104CA800FCE738B5044600F2AA25284600F089F941
:104CB8000123C4F89432B4F8B032C4F8983294F8A6
:104CC800AA1201F01F03012B0DD0022B10D02BB11B
:104CD80001F080012046FBF7EEFF03E0294620465D
:104CE80000F044FB38BD2946204600F07AFBF9E77E
:104CF8002946204600F0B7FBF4E7F8B5044601233F
:104D080080F89C320023C0F894324360C0F8A43283
:104D180080F8A032D0F8B832DBB15B68DBB1002193
:104D280098470746C8B94023002211462046FBF79A
:104D3800AFFF0126A4F864614025C4F860512B46F2
:104D4800002280212046FBF7A3FFA684256238466F
:104D5800F8BD0027E7E70027E5E70327E3E7017445
:104D68000020704790F89C32DBB2042B04D090F8F6
:104D78009C32DBB280F89D32042380F89C320020FC
:104D8800704790F89C32DBB2042B01D000207047AA
:104D980090F89D32DBB280F89C32F7E708B590F8BE
:104DA8009C32DBB2032B01D0002008BDD0F8B8320A
:104DB800002BF9D0DB69002BF6D09847F4E70020E8
:104DC80070470020704738B504460D46002943D186
:104DD8001346D0F89422032A01D0084638BDD0F8EB
:104DE8005C11D0F86021914212D890F8AA3203F0F1
:104DF8001F03012B17D0022B1CD0284694F89C3295
:104E0800DBB2032B1BD0204600F07FFC2846E5E7E9
:104E1800891AC0F85C118A4228BF0A46194600F070
:104E28006CFC2846DAE790F8AE12FFF7C8FF0028B6
:104E3800E9D1E3E790F8AE12FFF7C3FFF7E700F117
:104E4800AE0354F823301A69002ADCD0C4F8D4021F
:104E58001B6920469847D6E701F07F01FFF7B1FFAD
:104E680090B994F89C32DBB2032BB7D100F1AE03B2
:104E780054F823309A69002AB0D0C4F8D4029B6948
:104E8800294620469847A9E70020A7E738B50446F1
:104E98000D4600294BD11346D0F89422022A07D098
:104EA80094F8A00218B1002384F8A032284638BD2F
:104EB800C269016A8A420ED88A4218D094F89C3294
:104EC800DBB2032B27D080212046FBF7F4FE2046D7
:104ED80000F026FCE4E7521AC261194600F005FC0E
:104EE80000231A4619462046FBF71CFFD8E78369BA
:104EF8009942E3D8D0F898229342DFD20022114693
:104F080000F0F3FB0021C4F898120B460A4620462D
:104F1800FBF708FFC4E7D4F8B832DA68002AD2D021
:104F28000022C4F8D422DB6820469847CBE741F03A
:104F38008001FFF746FF90B994F89C32DBB2032B4F
:104F4800B5D100F1AE0354F823305A69002AAED027
:104F5800C4F8D4025B69294620469847A7E7002091
:104F6800A5E70B88027813440B8003781844704730
:104F7800428803789A4218D930B583B004460D4662
:104F8800ADF806306388BDF806209A420AD20DF1C2
:104F98000601FFF7E6FF4378052BF3D18378AB4290
:104FA800F0D100E0002003B030BD00207047034678
:104FB800002002E00130C0B201331A78002AF9D18A
:104FC80070470B7803704B7843708B78CA7843EA44
:104FD800022343800B794A7943EA022383808B7941
:104FE800CA7943EA0223C380704710B5044680217A
:104FF800FBF761FE00212046FBF75DFE10BD30B5D2
:1050080083B004460D460023ADF806304A88130ADB
:10501800013B062B00F2AB80DFE803F0041F33A945
:10502800A98D9A00D0F8B4321B680DF10601007CF6
:105038009847EA88002A00F0A380BDF80630002BC4
:1050480000F099809A4228BF1A46ADF8062001461A
:10505800204600F03DFB03B030BD037C43B9D0F8D7
:10506800B8329B6A0DF10600984702234370E0E7C7
:10507800D0F8B832DB6A0DF1060098470223437076
:10508800D7E7D2B2052A52D8DFE802F003101D2A6A
:105098003744D0F8B4325B6823B10DF10601007CC7
:1050A8009847C6E72946FFF7A0FFD4E7D0F8B432FF
:1050B8009B6823B10DF10601007C9847B9E72946A2
:1050C800FFF793FFC7E7D0F8B432DB6823B10DF1DF
:1050D8000601007C9847ACE72946FFF786FFBAE748
:1050E800D0F8B4321B6923B10DF10601007C984752
:1050F8009FE72946FFF779FFADE7D0F8B4325B693F
:1051080023B10DF10601007C984792E72946FFF785
:105118006CFFA0E7D0F8B4329B6923B10DF106010A
:10512800007C984785E72946FFF75FFF93E7294604
:10513800FFF75BFF8FE7037C33B9D0F8B8325B6BBE
:105148000DF10600984774E72946FFF74EFF82E7FE
:10515800037C43B9D0F8B8321B6B0DF106009847B1
:105168000723437065E72946FFF73FFF73E72946A2
:10517800FFF73BFF6FE729462046FFF736FF6AE750
:10518800204600F0C2FA66E738B504468B88FBB9BA
:10519800CB88EBB94B887F2B1AD803F07F0590F8A2
:1051A8009C32DBB2032B0CD080F89E522946FBF7C9
:1051B800A9FD204600F0A9FA35B1022384F89C32F3
:1051C80009E0FFF712FF06E0012384F89C3202E0B1
:1051D8002046FFF70AFF38BD70B504460E468D78A5
:1051E8002F4B1D70012D10D890F89C32DBB2022B8A
:1051F8000FD0032B26D0FFF7F8FE294B197820464D
:10520800FFF746FD0325284670BDFFF7EEFE032590
:10521800F9E7A5B145602946FFF731FD054638B1E4
:1052280031462046FFF7E1FE022384F89C32EAE784
:10523800204600F06AFA032384F89C32E3E700F082
:1052480064FAE0E7CDB141688D4225D0C9B2FFF7D5
:105258001FFD134B197861602046FFF710FD0546C6
:10526800B0B131462046FFF7C0FE21792046FFF74E
:105278000FFD022384F89C32C5E7022380F89C3294
:1052880045602946FFF704FD204600F03EFABAE7DC
:10529800204600F03AFAB6E700F037FA0025B2E700
:1052A800240D002008B5CB88012B0BD190F89C3237
:1052B800DBB2022B09D9032B09D10122011D00F011
:1052C80007FA01E0FFF791FE08BD5BB213B9FFF7DB
:1052D8008CFEF9E70146002341F8083F012200F05F
:1052E800F7F9F1E708B590F89C32013B022B12D888
:1052F800CB88022B0CD10123C360D0F8A4320BB1A8
:105308000323C360022200F10C0100F0E1F908BD9B
:10531800FFF76BFEFBE7FFF768FEF8E708B54B8879
:10532800012B04D0022B07D0FFF75FFE08BDC0F8A1
:10533800A43200F0EAF9F9E78B881B0A80F8A0325A
:1053480000F0E3F9F2E708B590F89C32013B022B34
:1053580009D84B88012B00D008BD0023C0F8A4321F
:1053680000F0D3F9F8E7FFF740FEF5E738B50C7819
:1053780004F06004202C06D0402C04D06CB1FFF758
:1053880034FE002407E0D0F8D432AE3350F823308E
:105398009B6898470446204638BD4D78092D1DD88E
:1053A800DFE805F012191C161C08051C0F0BFFF787
:1053B80026FEF0E7FFF7E8FEEDE7FFF70DFF0446EE
:1053C800E9E7FFF76FFFE6E7FFF78CFF2C46E2E718
:1053D800FFF7A4FFDFE7FFF7B6FFDCE7FFF705FEFF
:1053E800D9E770B505460C460B7803F06003202B0F
:1053F80007D0402B05D023B1FFF7F7FD0026304634
:1054080070BD95F89C32013B022B26D821790129E1
:1054180005D921462846FFF7E8FD0026EFE728468C
:10542800FFF7CDFC68B900F1AE0255F8222091686B
:1054380089B1C5F8D402936821462846984706469C
:1054480000E00326E388002BD9D1002ED7D12846C7
:1054580000F05BF9D3E70326F4E721462846FFF777
:10546800C4FD0026CBE72DE9F04106460D468B88A2
:10547800DFB20C7804F06004202C08D0402C06D051
:10548800DCB1FFF7B2FD00242046BDE8F0813946C3
:105498003046FFF796FC0446002840F0F880C6F82E
:1054A800D40200F1AE0356F823309B68002BEBD0F2
:1054B8002946304698470446E6E791F80180B8F156
:1054C800010F31D0B8F1030F05D0B8F1000F67D044
:1054D800FFF78BFDD8E790F89C32DBB2022B04D0A3
:1054E800032B12D0FFF781FDCEE70FB1802F04D137
:1054F80029463046FFF779FDC6E73946FBF7DBFB5F
:1055080080213046FBF7D7FBBEE74B8823B91FB194
:10551800802F01D0CB881BB1304600F0F6F8B3E7F6
:105528003946FBF7C8FBF7E790F89C32DBB2022B51
:1055380004D0032B12D0FFF758FDA5E70FB1802F39
:1055480004D129463046FFF750FD9DE73946FBF761
:10555800B2FB80213046FBF7AEFB95E74B88002B6A
:1055680092D117F07F0F17D1304600F0CEF83946A8
:105578003046FFF726FC002886D1C6F8D40200F191
:10558800AE0256F822209268002A00F0828029464E
:1055980030469047044677E73946FBF794FBE3E744
:1055A80090F89C22D2B2022A05D0032A27D0FFF70E
:1055B8001CFD444668E70FB1802F13D113F0800F0C
:1055C80014D107F07F0707EB8707B90001F5A87129
:1055D8003144043100230B600222304600F078F891
:1055E800444651E7FFF701FD44464DE707F07F07C2
:1055F80007EB8707B900103131440431EAE75BB2A1
:10560800002B1FDB07F00F0202EB820200EB820285
:10561800B2F864211AB3002B25DB07F07F0303EBF4
:1056280083039C0004F5A874344404340FB1802F1C
:1056380022D10023236002222146304600F048F898
:10564800444621E707F00F0202EB820200EB8202D8
:10565800928C002ADFD1FFF7C8FC444614E7FFF715
:10566800C4FC444610E707F07F0303EB83039C0068
:10567800103434440434D9E739463046FBF72BFB61
:1056880010B101232360D6E700232360D3E7002469
:10569800FAE60446F8E6D0B170B50D46164604465B
:1056A800FFF785FC431C5B009BB233802B70032300
:1056B8006B70022307E0EA5401345A1CD2B200216D
:1056C800A9540233DBB22278002AF4D170BD7047A6
:1056D80008B513460222C0F894228361C3610A46C2
:1056E8000021FBF717FB002008BD08B513460A4642
:1056F8000021FBF70FFB002008BD08B513460A463A
:105708000021FBF70FFB002008BD08B50422C0F8F4
:10571800942200231A461946FBF7FCFA002008BD1C
:1057280008B50522C0F8942200231A461946FBF74B
:10573800F9FA002008BDD0F8D432B03350F823303D
:1057480000201873704700000A2303800048704740
:105758002C02002010B5044681210548FFF708FCFB
:1057680008B10A22827122232380014810BD00BF9C
:105778004402002010B5044681210548FFF7F8FBD4
:1057880008B10A22827122232380014810BD00BF7C
:105798004402002010B5044681210548FFF7E8FBC4
:1057A80008B10722827122232380014810BD00BF5F
:1057B8004402002030B583B0D0F8D432B03350F86A
:1057C80023300022ADF80620002B00F082800C78F0
:1057D80014F0600425D0202C75D14A78023A092AA1
:1057E8001BD8DFE802F014091A1A1A1A1A1A0F0538
:1057F8008A781A60002469E001221946FFF768FFD9
:10580800002463E04A88120A5A6000245EE00122FC
:10581800191DFFF75DFF002458E0FFF7E6FB03249E
:1058280054E04D780B2D4AD8DFE805F00650494979
:105838004949164949492E3D90F89C32DBB2032B61
:1058480003D0FFF7D2FB032440E002220DF106014A
:10585800FFF73EFF2C4639E04B881B0A222B09D064
:10586800212B0DD1CA88092A28BF09221A49FFF716
:105878002FFF2BE0CA884E2A28BF4E221749F6E789
:10588800FFF7B3FB032421E090F89C22D2B2032A4D
:1058980003D0FFF7AAFB032418E0012203F1080153
:1058A800FFF716FF12E090F89C22D2B2032A02D129
:1058B8008A789A600AE0FFF798FB032406E0FFF76E
:1058C80094FB032402E0FFF790FB0324204603B077
:1058D80030BD0324FAE700BF38020020DC010020B5
:1058E80010B504468121FBF7DEF90023238763877F
:1058F800D4F8D432B03354F8230038B1FBF71EFA89
:10590800D4F8D432B033002244F82320002010BD4C
:1059180038B504461020FBF70DFAB0B10546D4F8A7
:10592800D432B03344F82300C4F8BC02237CA3B9B2
:10593800072363870523032281212046FBF7A8F963
:10594800012323870020287338BDD4F8D432B0331C
:10595800002244F823200220F6E70A236387E9E7B8
:1059680010B5D0F8D43203F1B00C50F82C30BBB1DC
:1059780090F89CC25FFA8CFCBCF1030F02D00024A3
:10598800204610BD1C7B0CB10024F9E74FF0010C38
:1059980083F80CC013460A468121FBF7BBF9EFE7F1
:1059A8000324EDE7DFF834D0FFF7BEF8002103E069
:1059B8000B4B5B58435004310A480B4B42189A4230
:1059C800F6D30A4A02E0002342F8043B084B9A4205
:1059D800F9D300F011F8FAF73AFDFEE700000320CA
:1059E800B06D000800000020000300200003002024
:1059F800780E0020FEE7000070B50D4D00260D4C16
:105A0800641BA410A64209D10B4D00260B4C00F0D4
:105A1800CFFF641BA410A64205D170BD55F8043B06
:105A280001369847EEE755F8043B01369847F2E708
:105A3800A06D0008A06D0008A06D0008A46D000806
:105A48000FB407B5064904AB086853F8042B8168FE
:105A5800019300F031F803B05DF804EB04B070472F
:105A6800A00200209368013B002B936010B408DA71
:105A78009469A34201DB0A2903D15DF8044B00F0C5
:105A880033B91368581C1060084619705DF8044B48
:105A98007047F8B506460F461446D518AC4201D1F2
:105AA800002007E03A4614F8011B3046FFF7DAFFFA
:105AB800431CF3D1F8BD00002DE9F04F0D469DB011
:105AC80014469846064618B1036A0BB900F0E2FC82
